:020000040800F2
:1000000000200020A9130008B5120008B71200084C
:1000100000000000000000000000000000000000E0
:10002000000000000000000000000000B9120008FD
:100030000000000000000000BB120008BD12000814
:10004000F9130008F9130008F9130008F913000860
:10005000F9130008F9130008F9130008F913000850
:10006000F9130008F9130008F9130008F913000840
:10007000F9130008F913000800000000F913000844
:1000800000000000F913000800000000000000005C
:10009000F913000800000000F9130008F913000824
:1000A000F9130008F9130008F9130008F913000800
:1000B000F9130008F9130008F9130008F9130008F0
:1000C00010B5064C2378002B07D1054B002B02D02E
:1000D000044800E000BF0123237010BD5408002035
:1000E00000000000A8390008044B10B5002B03D015
:1000F0000349044800E000BF10BDC04600000000F6
:1001000058080020A8390008002243088B4274D305
:1001100003098B425FD3030A8B4244D3030B8B4208
:1001200028D3030C8B420DD3FF22090212BA030C11
:100130008B4202D31212090265D0030B8B4219D3F2
:1001400000E0090AC30B8B4201D3CB03C01A524112
:10015000830B8B4201D38B03C01A5241430B8B425A
:1001600001D34B03C01A5241030B8B4201D30B0343
:10017000C01A5241C30A8B4201D3CB02C01A52416A
:10018000830A8B4201D38B02C01A5241430A8B422D
:1001900001D34B02C01A5241030A8B4201D30B0216
:1001A000C01A5241CDD2C3098B4201D3CB01C01A30
:1001B000524183098B4201D38B01C01A524143093A
:1001C0008B4201D34B01C01A524103098B4201D328
:1001D0000B01C01A5241C3088B4201D3CB00C01A95
:1001E000524183088B4201D38B00C01A524143080D
:1001F0008B4201D34B00C01A5241411A00D2014632
:10020000524110467047FFE701B5002000F006F8A4
:1002100002BDC0460029F7D076E770477047C04658
:10022000002B11D1002A0FD1002900D1002802D0C3
:100230000021C943080007B4024802A140180290F7
:1002400003BDC046D9FFFFFF03B4684601B502985D
:1002500000F034F8019B9E4602B00CBC7047C046CB
:10026000F0B5CE46474680B5070099463B0C9C4604
:1002700013041B0C1D000E0061460004140C000C3E
:1002800045434B4360436143C0182C0C20188C46F7
:10029000834203D980235B029846C444494679438C
:1002A0007243030C63442D042D0CC918000440193B
:1002B0008918C0BCB946B046F0BDC046F0B5574637
:1002C0004E464546DE46E0B504000D00924699468E
:1002D00083B08B4230D82DD04946504600F0D8F834
:1002E00029000600200000F0D3F8331A9846203B7E
:1002F0009B4633D45A465346934042461F005346CA
:1003000093401E00AF423AD8AF4200D178E05B463E
:10031000A41BBD41002B00DA75E0002200230092EF
:10032000019301235A46934001930123424693408F
:10033000009328E08242CFD900220023009201934B
:100340000C9B002B01D01C605D600098019903B0EC
:10035000F0BCBB46B246A946A046F0BD42462023AB
:100360009B1A5246DA40414613004A468A4017001B
:1003700042461F43534693401E00AF42C4D9002259
:100380000023009201934346002BD9D0FB0772084B
:100390001A4346467B080EE0AB4201D1A2420CD87C
:1003A000A41A9D41012024196D410021013E241809
:1003B0004D41002E06D0AB42EED9013E24196D41CD
:1003C000002EF8D1009801995B4600196941002B75
:1003D00024DB2B005A464446D3402A00E2401C004E
:1003E0005B461500002B2ADB26009E4033002600CA
:1003F0004746BE403200801A9941009001919FE724
:10040000A342BCD883E74246202300219B1A002246
:10041000009101920122DA40019286E742462023B0
:100420009B1A2A0046469A402300F3404446134351
:100430002A00E2401C005B461500002BD4DA42463D
:100440002F002023260097409B1ADE403B003343B9
:10045000CDE7C0461C2101231B04984201D3000CA8
:1004600010391B0A984201D3000A08391B09984227
:1004700001D30009043902A2105C40187047C0463D
:10048000040302020101010100000000000000005D
:1004900010B5002903D1FFF7DDFF203002E008008E
:1004A000FFF7D8FF10BDC04670B586B00C000F2511
:1004B0006D4428701E4E01224021300001F014F9D5
:1004C000002280211B4801F00FF90022402130005A
:1004D00001F00AF901235B420093023317226A44B8
:1004E0002900154802F067F800280CD0022807D030
:1004F00003280FD0012811D0104800F005FD02E0BC
:100500000F4800F001FD002C0CD117236B44187824
:1005100006B070BD0B4800F0F7FCF4E70A4800F0A5
:10052000F3FCF0E701224021014801F0DDF8ECE79F
:100530000004005000080050D4080020403A000891
:10054000C0390008E8390008143A000870B5040002
:100550000D0001228021084801F0C6F801235B420A
:100560002A002100054801F04FFF012240210448E4
:1005700001F0BAF870BDC04600080050D408002051
:100580000004005070B50C0015000021FFF78CFF2F
:1005900029002000FFF7DAFF70BD000010B5054B01
:1005A0001B78002B00D010BDFA20400000F074FF33
:1005B000F9E7C0469408002010B501211220FFF78A
:1005C00073FF642000F068FFFFF7E8FF044B1B781F
:1005D000002B00D010BD034800F05EFFFAE7C046D4
:1005E00094080020C832000000B583B001A9F723A9
:1005F0000B7001225020FFF7C5FF01210220FFF7F9
:1006000053FFFFF7CBFF074B1B78002B01D103B043
:1006100000BD01A9A5230B7001220720FFF7B2FF3F
:10062000F5E7C04695080020002807D1074B1B7846
:10063000002B06D0064B1A88064B1A80064B197001
:100640007047064B1A68064B1A60F7E70000002057
:100650007C0800207408002076080020780800201C
:100660007008002010B5041E1E4B1F4A1A601F4B55
:1006700018702BD000231E4A13801E4A13601E4B95
:1006800001221A70002C27D1012240211B4801F0C1
:100690002BF8FFF7A9FF00210020FFF7C5FF184B3B
:1006A000184A1A60184B00221A7001215970022052
:1006B0009870D8705A711971144B0831FF31198034
:1006C000134B58391980134B1A7010BD064802F0AD
:1006D00079FC084B1860D2E74021002000F09EFD15
:1006E000D2E7C04680080020B016000000000020BD
:1006F0007C080020780800209308002000040050A7
:10070000840800208C3A00088C08002096080020FD
:10071000880800209208002070B582B00C001500F7
:10072000002840DB3F4B1B8898423CDA00293ADB2B
:100730003D4B1B88994236DA3C4B1B78022B3FD04D
:10074000032B45D0012B35D00823FF331B1AB020D3
:1007500058432018C00886B2354B1B78002B3CD17B
:10076000344B1B680004000C1818334B5B5D0122EE
:10077000110019401A4203D0304B1B78002B05D1D1
:10078000002936D12D4B1B78002B32D1E217520FA6
:10079000A41807231C40A41A1C1B0122A2400378A2
:1007A0009343037031E022000100254800F0DCFB98
:1007B00002B070BD0823FF335B1A040018B2C3E710
:1007C0000823FF33181A00B2AF210C1B24B2BBE779
:1007D000AF231B1A08001CB2B6E71A4B1888301852
:1007E00080B2032100F00EFD03006A46D01D0370A5
:1007F000BBE7E217520FA41807231C40A41A1C1BC6
:100800000122A240037813430370094B1B78002B8D
:10081000CED001780B4B1888301880B2022200F03D
:10082000FDFCC5E7960800208808002092080020FB
:1008300000000020700800208C08002076080020AE
:10084000703A000874080020032318400D4B1870FC
:1008500002280ED00AD800280BD0012808D10A4B54
:10086000B0221A80094B58321A8001E00328F6D0D2
:100870007047054B842252001A80044B583A1A8064
:10088000F6E7C0469208002096080020880800205D
:10089000002800D10130044B1870002900D101312B
:1008A000024B19707047C04604000020050000206C
:1008B00010B50100FFF7ECFF10BDF0B5DE4657465E
:1008C0004E464546E0B583B00F0016001C000CAB49
:1008D0001B889B46631ADA179B1853409846331AB5
:1008E000DA179B1853409946984504DC23003400DE
:1008F0001E0007000800A74205DC330006001800B0
:1009000023003C001F003D1BABB200932DB2831BA4
:10091000DA179B1853409A46EB0F5D196D1086420B
:1009200023DB01235B4201930CE05A463100200097
:10093000FFF7F2FE5346EB1A9AB21DB21B040BD41A
:10094000013424B2BC4213DCC845EEDD5A46210016
:100950003000FFF7E1FEEDE7019B9C46664436B2AE
:10096000009B9C46624415B2EAE701230193E9E744
:1009700003B0F0BCBB46B246A946A046F0BD10B5D8
:1009800082B01C008A1892B2013A13B2009402009D
:10099000FFF793FF02B010BDF0B5D6464F4646466E
:1009A000C0B581460E0092461F0008AB1B889846D2
:1009B00005000BE0424621002800FFF7ADFE0134A0
:1009C00024B2F3199C42F5DB01352DB24B4653445A
:1009D0009D4201DA3400F4E7E0BCBA46B146A846CD
:1009E000F0BD0000F0B5DE4657464E464546E0B540
:1009F00087B0824603910592994610AB1B889B46AF
:100A000011AB1E7812AB1F78484B1B8898427CDADA
:100A1000474B1B88994278DA73009B195B0053445B
:100A2000002B72DDFB008C466344002B6DDD002340
:100A300098464DE040467043504421007943039B63
:100A40009C4661443BB2049332B209B200B24B46B9
:100A50000093049BFFF7A0FF013464B26D08072CDC
:100A600032DCEB070DD5012EE4D1012FE2D1404657
:100A70005044039BE11809B200B24A46FFF74CFE0E
:100A8000EAE7CB45E8D0012E01D1012F12D0404634
:100A90007043504421007943039B9C4661443BB220
:100AA000049332B209B200B25B460093049BFFF795
:100AB00073FFD1E740465044039BE11809B200B2EE
:100AC0005A46FFF729FEC7E7434601335BB2984613
:100AD0004346042B08DC059A930094466344434440
:100AE000144AD55C0024BAE7CB450ED0012E01D1C3
:100AF000012F11D0B00030185044FB0032B200B2C8
:100B0000594600910399FFF747FF07B0F0BCBB4679
:100B1000B246A946A046F0BD5046053000B25B463D
:100B200008220399FFF72BFFEFE7C0469608002045
:100B300088080020A83A000870B584B002000A288E
:100B400038D00D2834D0214B1B78002B16D0204BE9
:100B500019784B005B185B001E490020095ECB181A
:100B60001D4909888B4209DD1A4B002119801B4958
:100B70001B4B1B78DB0008881B180B80194B1B884C
:100B800016490020095E134C0025605F144D2D7836
:100B900002950F4D2E780196134E36880096FFF77A
:100BA00021FF2B785A009B185B0022889B1823801A
:100BB00004B070BD074B00221A80084A084B1B780E
:100BC000DB0011885B181380F2E7C0469E08002006
:100BD0000400002098080020960800209A080020B1
:100BE00005000020020000209C08002010B5040031
:100BF00002E00134FFF7A0FF20780028F9D110BDF2
:100C000010B5FFF7F3FF10BDF0B5D6464F46464688
:100C1000C0B58AB01422002105A802F09DFC324B19
:100C2000D96A04221143D962D96A0A400192019A11
:100C3000DA6A80273A43DA62DA6A3A400292029A22
:100C4000DA6A01252A43DA62DA6A2A400392039AB1
:100C5000D96A02221143D962DB6A1A400492049BCA
:100C6000224E01228021300000F03EFD80239B00B7
:100C70009A46A023DB05994601225146180000F050
:100C800033FD1B4B984601225021180000F02CFD2B
:100C900080239B010593174B06930024079405A915
:100CA000300000F057FC059706950794089405A9B5
:100CB000300000F04FFC53460593069507940895C5
:100CC00005A9484600F046FC502305930695079475
:100CD000089405A9404600F03DFC0AB0E0BCBA46C5
:100CE000B146A846F0BDC0460010024000080050C2
:100CF000000400500000211072B6FEE700B59DB060
:100D0000382200210EA802F027FC1422002109A895
:100D100002F022FC24220021684602F01DFC1D493D
:100D20000B681D4A1A4080231B0113430B600223EA
:100D30000E93012211920F321292189300231993ED
:100D40008023DB021A938023DB031B930EA800F0A1
:100D500029FD002818D10F2309930C3B0A93002387
:100D60000B930C930D93012109A800F0DFFF0028DD
:100D70000CD10223009300230493684601F0E8F8A5
:100D8000002805D11DB000BDFFF7B6FFFFF7B4FF87
:100D9000FFF7B2FF00700040FFE7FFFF30B589B0FA
:100DA00000F054FBFFF7AAFFFFF72EFF00F0B0FAA8
:100DB00000F03CF900F084F8224800F0D5F800F08B
:100DC00095F94221204800F0CFF842220221082064
:100DD00000F030FA1D4800F0C7F80321082000F0A9
:100DE00011FA01001A4800F0BFF81A4C200000F078
:100DF000BBF8194800F088F80020FFF733FC20000A
:100E000000F0B2F8154800F07FF80220FFF71CFD53
:100E10000320FFF74DFD124800F076F86846114BAD
:100E2000020032CB32C232CB32C2196811609B88C9
:100E30009380FFF7E5FEFFF7BFFB0B4800F064F877
:100E4000FEE7C046A83F0008C83F0008F83F00087A
:100E500018400008C43F00082C4000084440000827
:100E6000604000088040000878400008F8B50400A1
:100E70000F000B4D31230022EA5431353900200098
:100E8000FFF7C8F9013D074B5B5C2B70260039006A
:100E90002000FFF739F90400B742EFD92800F8BD68
:100EA000A00800200841000810B50378002B04D0EA
:100EB0000130FFF7F9FF013010BD0020FCE7000012
:100EC00000B583B0074B1A6800929A8869468A80F9
:100ED0009B798B7101235B420722034801F05AFF83
:100EE00003B000BDA04000083009002010B5040088
:100EF000FFF7DAFF012382B25B422100014801F0D3
:100F000049FF10BD3009002070B582B00400FFF722
:100F1000CBFF0126764282B2094D33002100280022
:100F200001F038FF074B1A8869468A809B788B71DD
:100F30003300022201A9280001F02CFF02B070BD8D
:100F400030090020A840000800B583B06B46D91DC9
:100F5000087001235B420122024801F01BFF03B02D
:100F600000BDC046300900200FB430B583B006ABD9
:100F700010CB01931FE0FFF7E7FF0134207825280D
:100F800007D0002805D00A28F5D12548FFF7AEFF85
:100F9000F3E7002812D06378633BDAB2152A09D848
:100FA0009300204AD3589F46019B1A1D019218783E
:100FB000FFF7CAFF02342378002BDFD103B030BC27
:100FC00008BC04B01847019B1A1D01921D68002D32
:100FD00006DB0A212800FFF749FFFFF787FFE9E753
:100FE0006D421148FFF782FFF3E7019B1A1D019242
:100FF00018680821FFF73AFFFFF778FFDAE7019B4F
:101000001A1D01921868FFF771FFD3E7019B1A1DA3
:10101000019218681021FFF729FFFFF767FFC9E762
:10102000A8400008B0400008AC40000810B50E48C9
:101030000E4B036082235B00436000238360C36028
:1010400003614361802292008261C3610362436253
:1010500083620733C36201F071F9002800D110BD2B
:10106000FFF74AFEFBE7C046D408002000300140ED
:1010700010B586B004001422002101A802F06CFA19
:1010800022680F4B9A4201D006B010BD0D4B596B30
:10109000802252010A435A63D96A01221143D9625C
:1010A000DB6A13400093009BE0230193DE3B029335
:1010B0000492A02001A9C00500F04CFAE4E7C04664
:1010C000003001400010024010B58021A020012214
:1010D0008900C00500F008FB10BD10B58021A020DC
:1010E00000228900C00500F0FFFA10BD10B582B0E3
:1010F000FFF7EAFF642000F0CFF9FFF7EEFF6B4641
:10110000FF22DA71002408E001235B4201226946D4
:101110000731054801F078F90134022CF4DDFFF7BE
:10112000D3FF02B010BDC046D4080020F0B583B094
:1011300004000E0015001F00FFF7CFFF01AB1F706A
:10114000220A5A709C700024022C22DC01AB1B5D29
:101150006A46D11C0B7001235B4201220E4801F04C
:1011600053F9022F15D10134EEE7335D6A46D11CE5
:101170000B7001235B420122074801F045F901345D
:10118000A542F2DCFFF7A0FF642000F085F903B070
:10119000F0BD0024F4E7C046D4080020F0B583B0C9
:1011A00005000C0017001E00FFF797FF01AB1E7033
:1011B0002A0A5A709D700025022D1EDC01AB5B5D72
:1011C0006A46D11C0B7001235B4201220C4801F0DE
:1011D0001BF9032E11D10135EEE7661C01235B429A
:1011E00001222100064801F0FDFA01353400AF422A
:1011F000F3DCFFF769FF03B0F0BD0025F7E7C04659
:10120000D408002010B582B00B006A46D41D01221C
:101210002100FFF7C3FF207802B010BD10B582B0E7
:101220000C0013006A46D11D0C700122FFF77EFFEF
:1012300002B010BD70B582B004000D001600FFF7BB
:101240004CFF01AB02221A70220A5A709C700024D3
:101250000BE001AB1B5D6A46D11C0B7001235B42A6
:1012600001220C4801F0D0F80134022CF1DD0024F9
:1012700009E06B46D91C0E7001235B420122054830
:1012800001F0C2F80134A542F3DCFFF71DFF02B004
:1012900070BDC046D4080020054B5A6B01210A439B
:1012A0005A63996B802252050A439A637047C0467D
:1012B00000100240FEE7FEE77047704710B500F0EF
:1012C000D9F810BD10B503000C4A0D49521A0D494A
:1012D0000968002907D00B490868C318934206D84B
:1012E000084A136010BD074907480860F3E701F09A
:1012F00041FE0C23036001204042F3E70020002060
:10130000000400002C090020F809002070470000AC
:1013100010B50C480C4B036096239B0143600023DF
:101320008360C36003610C2242618361C361036215
:10133000436201F0E9FD002800D110BDFFF7DCFC9D
:10134000FBE7C046300900200044004010B586B0DD
:1013500004001422002101A802F0FEF82268104BBC
:101360009A4201D006B010BD0E4B996B80229202BA
:101370000A439A63D96A01221143D962DB6A1A408F
:101380000092009B0C2301930A3B029301330493C8
:1013900001330593A02001A9C00500F0DBF8E1E7C7
:1013A00000440040001002400D4885460D480E499B
:1013B0000E4A002302E0D458C4500433C4188C42AF
:1013C000F9D30B4A0B4C002301E013600432A24214
:1013D000FBD3FFF79BFF01F0D3FDFFF7DFFCFEE738
:1013E000002000200000002054080020A041000838
:1013F00054080020F8090020FEE7000010B50400A2
:101400000F4B1978FA208000FEF77EFE01000D4B8D
:101410001868FEF779FE00F081F800280DD1032C42
:1014200001D901200AE0013000222100404200F0F1
:1014300045F8054B1C60002000E0012010BDC046AF
:101440000C000020080000201000002010B5084A01
:10145000136840210B4313600020FFF7CFFF041EE9
:1014600002D00124200010BDFFF716FFFAE7C046A6
:1014700000200240034A1168034B1B785B1813607D
:101480007047C046B40900200C000020014B1868CA
:101490007047C046B409002070B50400FFF7F6FF9E
:1014A0000500631C02D0044B1B78E418FFF7EEFF25
:1014B000401BA042FAD370BD0C00002070B500287C
:1014C00011DB8308134EC0339B009D590324204039
:1014D000C000FF2214008440A54389010A408240D5
:1014E0002A439A5170BD0F230340083B9B080633E3
:1014F0009B00094A944663445C6803221040C00084
:10150000FC3215008540AC4389010A4082402243E9
:101510005A60E7E700E100E000ED00E001388023D9
:101520005B0498420FD2094A50600948036A1B02C3
:101530001B0AC02109060B43036200239360073393
:101540001360002070470120FCE7C04610E000E077
:1015500000ED00E0F0B5CE46474680B5002333E00D
:10156000052600E00026A64034003C4302329200EB
:10157000564E9451564A1468EA432600AE434F68CB
:10158000FF0301D52C432600514C266064682600D9
:1015900016404F68BF0301D52C4326004C4C6660B3
:1015A000A468260016404F68FF0201D52C43260090
:1015B000474CA660E46822404E68B60201D52A0076
:1015C0002243434CE26001330C682200DA4078D0B9
:1015D00001229A40250015401442F4D04C68661E42
:1015E000012E03D9112C01D0122C12D184685F0076
:1015F0000326BE40B4432600CC68BC40344384601C
:10160000446894434A681609012232409A402243B2
:101610004260C4685F000326BE40F2439446B44370
:1016200026008C68BC403443C4604A68022A01D05A
:10163000122A10D1DE080836B2009146145807224B
:101640001A4092000F269640B4430E69964032002D
:1016500022434C46225004686246144003224E68DE
:101660003240BA40224302604A68D200ABD5194CDE
:10167000626B0126324362639A08941CA400134EE5
:10168000A75903261E40B4000F26A640B743A02644
:10169000F605B04200D165E70F4EB0420BD00F4EB9
:1016A000B0420AD00E4EB04209D00E4EB04200D128
:1016B00056E7062657E7012655E7022653E7032695
:1016C00051E7C0BCB946B046F0BDC046000001407D
:1016D00000040140001002400004005000080050C7
:1016E000000C0050001C0050002A01D0816170479E
:1016F0008162FCE710B5264BDA680C231340082BF7
:1017000042D00C2B11D0042B09D0214B5A68520B1C
:1017100007231340013380200002984010BD1C4B6A
:101720001B68DB0632D51B48F8E7910C0F230B40F2
:101730001949C85C920D03231A40541C144BDB68F2
:10174000DB0309D5154A00230021FEF789FD22009D
:101750000023FEF765FDE1E70D4B1B68DB0609D5AD
:101760000C4A00230021FEF77BFD22000023FEF738
:1017700057FDD3E70A4A00230021FEF771FD22003E
:101780000023FEF74DFDC9E70448C7E70448C5E755
:101790000010024000093D003441000800127A00A8
:1017A0000024F400F0B583B0041E00D197E2C14BD1
:1017B000DA680C251540DE6880235B021E40036852
:1017C000DB0736D5082D2CD00C2D28D0636880225D
:1017D000520293424DD0A022D202934250D0B54B38
:1017E0001A68B5490A401A601A68802149020A40FD
:1017F0000192019A1A68B1490A401A606368002B85
:101800004AD0FFF743FE0700AA4B1B689B0310D486
:10181000FFF73CFEC01B6428F6D9032060E2002ECF
:10182000D4D0A44B1B689B0303D56368002B00D165
:1018300058E223689B0765D5E368042D3CD00C2D46
:1018400038D0002B00D1B0E09A490A6809208243C1
:1018500013430B60FFF71AFE0600964B1B685B07ED
:1018600000D599E0FFF712FE801B0228F5D903206E
:1018700036E2904A116880235B020B431360BDE798
:101880008C4B19688022D2020A431A6019688022A0
:1018900052020A431A60B1E7FFF7F8FD0700854BD3
:1018A0001B689B03C5D5FFF7F1FDC01B6428F6D963
:1018B000032015E2002EC4D17E4A1268520702D5D9
:1018C000002B00D110E27B4E72687D490A402169ED
:1018D00009020A437260326809218A431343336064
:1018E000FFF708FFF26812090F231340754AD35C13
:1018F000D840754B1860754B1868FFF77FFD0028BE
:1019000000D0EDE12368DB062DD5002D60D1694BB9
:101910001B689B0503D5E369002B00D1E6E1654A0E
:1019200053686B490B40616A0B43536053681B0259
:101930001B0A216A09060B435360636A590B013184
:1019400080231B028B40D16809090F220A405D49A0
:101950008A5CD3405C4A13605C4B1868FFF74EFD0D
:10196000002800D0BCE123681B077DD56369002BEC
:1019700067D0504A136D01210B431365FFF786FDB5
:1019800006004C4B1B6D9B076ED4FFF77FFD801B41
:101990000228F6D90320A3E146494B68484A134080
:1019A0002269120213434B60ACE7424A13680121DB
:1019B0008B431360FFF76AFD06003E4B1B685B0715
:1019C000A0D5FFF763FD801B0228F6D9032087E12D
:1019D000E369002B22D0374A116880235B000B4358
:1019E0001360FFF753FD0600324B1B689B0506D4BE
:1019F000FFF74CFD801B0228F6D9032070E12D4A29
:101A0000536833490B40616A0B43536053681B02B0
:101A10001B0A216A09060B435360A4E7254A136891
:101A20002C490B401360FFF731FD0600214B1B686A
:101A30009B0598D5FFF72AFD801B0228F6D90320C5
:101A40004EE11C4A136D01218B431365FFF71EFD08
:101A50000600184B1B6D9B0706D5FFF717FD801B73
:101A60000228F6D903203BE123685B0700D48EE00F
:101A7000104B9B6BDB001BD40E4A916B80235B05E4
:101A80000B4393630126144B1B68DB0528D5A36821
:101A900080225200934237D0002B4DD1054B1A6D56
:101AA0000C490A401A651A6D0C490A401A6531E062
:101AB0000026E8E700100240FFFFFEFFFFFFFBFFEC
:101AC000FFE0FFFF1C41000808000020100000207C
:101AD000FF1FFFFFFFFEFFFF00700040FFFBFFFF47
:101AE000884A116880235B000B431360FFF7CEFC2C
:101AF0000700844B1B68DB05C9D4FFF7C7FCC01B7C
:101B00006428F6D90320EBE07F4A116D80235B0047
:101B10000B431365A368002B28D0FFF7B7FC070021
:101B2000794B1B6D9B0530D4FFF7B0FCC01B774B86
:101B30009842F5D90320D3E0A022D200934209D0E5
:101B4000714B1A6D72490A401A651A6D71490A4043
:101B50001A65DFE76C4B196D013AFF3A0A431A65C3
:101B6000196D802252000A431A65D3E7FFF78EFCF5
:101B70000700654B1B6D9B0507D5FFF787FCC01B56
:101B8000624B9842F5D90320AAE0012E21D02368A8
:101B90009B063CD5A369002B21D05B4B99680120A3
:101BA000014399605A6B02435A635B4A116A80236E
:101BB0009B010B431362FFF769FC0600524B9B68C5
:101BC0009B0724D4FFF762FC801B0228F6D9032070
:101BD00086E04D4A936B51490B409363D7E74A4ADD
:101BE000936801218B4393604B4A136A4C490B4025
:101BF0001362FFF74BFC0600434B9B689B0706D51F
:101C0000FFF744FC801B0228F6D9032068E0A36A92
:101C1000002B00D16CE00C2D49D0022B12D03A4A97
:101C2000136840490B401360FFF730FC0400364B4B
:101C30001B689B0139D5FFF729FC001B0228F6D948
:101C400003204DE0304A136836490B401360FFF71C
:101C50001DFC05002C4B1B689B0106D5FFF716FCED
:101C6000401B0228F6D903203AE02749CB682E4AC8
:101C70001340E26A206B0243606B02431343CB6064
:101C80000A6880235B0413430B60FFF7FFFB04002B
:101C90001D4B1B689B0106D4FFF7F8FB001B0228B5
:101CA000F6D903201CE000201AE0002018E0012BE8
:101CB00020D0154BDA6880235B021340E16A8B4227
:101CC0001AD1F0239B031340216B8B4216D1C02302
:101CD0001B041A40636B9A4212D1002000E00120DD
:101CE00003B0F0BD0120FBE70120F9E70120F7E791
:101CF0000020F5E70120F3E70120F1E70120EFE7FD
:101D00000120EDE700700040001002408813000041
:101D1000FFFEFFFFFFFBFFFF00000140FFFFFFEFA3
:101D2000FFDFFFFFFFFFFFFEFFFF02FF70B50500B3
:101D30000C00002800D1D1E06A4B1A68012313403F
:101D40008B4219D32B689B0706D5674AD368F021CD
:101D50008B43A9680B43D3602B68DB077BD56B688B
:101D6000022B20D0032B40D0012B44D05E4A1268B6
:101D700092051DD4012099E05A4A136801218B4332
:101D800023431360FFF782FB0600564B1A680123BA
:101D90001340A342D6D0FFF779FB801B534A9042F1
:101DA000F3D9032082E0504A1268920300D497E0EE
:101DB0004D49CA68032082431343CB60FFF766FB9B
:101DC00006006B68022B1CD0032B28D0012B34D0CB
:101DD000454BDB680C221A423DD0FFF757FB801BB6
:101DE000424B9842F4D9032060E03F4A12689201C6
:101DF000DED401205AE03C4A12685207D8D40120B0
:101E000054E0394BDA680C231340082B23D0FFF73A
:101E10003DFB801B354A9042F3D9032046E0324B0C
:101E2000DA680C2313400C2B15D0FFF72FFB801B17
:101E30002E4B9842F3D9032038E02B4BDA680C2361
:101E40001340042B07D0FFF721FB801B274B984240
:101E5000F3D903202AE0234B1A6801231340A3423D
:101E600025D82B685B0706D51F4AD36820490B404D
:101E7000E9680B43D3602B681B0707D51A49CB6869
:101E80001C4A13402A69D2001343CB60FFF732FC8F
:101E9000154BDA6812090F231340174AD35CD84058
:101EA000164B1860164B1868FFF7A8FA70BD0D4A5C
:101EB000136801218B4323431360FFF7E7FA060001
:101EC000084B1A6801231340A342CAD0FFF7DEFA79
:101ED000801B064B9842F3D90320E7E70120E5E792
:101EE0000120E3E7002002400010024088130000B8
:101EF000FFF8FFFFFFC7FFFF1C410008080000209C
:101F000010000020014B18687047C04608000020F0
:101F100010B5FFF7F7FF044BDA68120A07231340E6
:101F2000024AD35CD84010BD001002402C4100088A
:101F300010B5FFF7E7FF044BDA68D20A0723134016
:101F4000024AD35CD84010BD001002402C4100086A
:101F500070B5040082231B0102681A4259D06F4BEE
:101F60009B6BDB0000D592E06C4A916B80235B0594
:101F70000B43936301256A4B1B68DB0500D488E0A3
:101F8000664B1A68C0239B031A4061680B4093425A
:101F900000D193E0C0239B020A001A409A4200D16C
:101FA00094E05E4B1A6DC0239B02100018401A4249
:101FB0001ED01940814202D023689B0608D4C0235A
:101FC0009B02A2681340834212D023681B050FD5E1
:101FD000524B186D534A02401E6D80210903314354
:101FE0001965196D504E314019651A65C30574D4D1
:101FF0006368C02292021900114091427CD0474987
:102000000B6DC02292026068024013430B65012DE4
:102010007CD02368DB0706D5404AD36C03218B4371
:10202000E1680B43D36423689B0706D53B4AD36C16
:102030000C218B4321690B43D36423685B0706D5CE
:10204000364AD36C39490B4061690B43D36423682A
:102050001B0706D5314AD36C35490B40A1690B43A8
:10206000D36423685B0606D52C4AD36C31490B40F8
:10207000216A0B43D36423681B064DD5274AD36CD2
:102080002D490B40E1690B43D364002045E0002556
:1020900071E7234A116880235B000B431360FFF74D
:1020A000F5F906001E4B1B68DB0500D568E7FFF756
:1020B000EDF9801B6428F5D903202EE0C0239B0393
:1020C000A0680340934200D064E76AE7134B1B68A3
:1020D0009B0300D465E701201FE0FFF7D7F9060056
:1020E0000E4B1B6D9B0583D4FFF7D0F9801B134B60
:1020F0009842F5D9032010E008490A6810480240C8
:10210000C0208003034013430B6078E70A008B6B09
:102110000C490B4093637CE7002070BD0010024027
:1021200000700040FFFFFCFFFFFFF7FFFFF3FFFF22
:10213000FFCFFFFFFFFFFFFBFFFFF3FF8813000050
:10214000FFFFCFFFFFFFFFEFF0B5D6464F464646F5
:10215000C0B582B006000D0090461F00FFF796F94B
:102160000A9B181A8146B944FFF790F982462E4B14
:102170001B685B011B0D4A465343019333689C68FF
:102180002C40641B63425C41444545D07B1CF5D028
:10219000FFF77CF95346C01A48450BD24B46002B3B
:1021A00008D0019A002A00D04A46019B013B0193C6
:1021B0009146E3E732685368E0218B435360822302
:1021C0005B0072689A420CD080239B01B26A9A42EB
:1021D00016D051230122F254013B0022F254032075
:1021E0001BE0B36880221202934203D08022D20007
:1021F0009342E9D13268136840218B431360E3E7CF
:102200003268136809490B401360326811688023F3
:102210009B010B431360DCE7002002B0E0BCBA4630
:10222000B146A846F0BDC04608000020FFDFFFFF12
:1022300070B584B004000D001600174B18681749DC
:10224000FDF762FF020043011B1A98008018C000CE
:10225000039082235B0062689A420BD0039B002BA1
:1022600017D0039B013B039323689B681B06F5D49F
:1022700000200FE000962B00002280212000FFF7B5
:1022800063FF002806D0636D20221343636503209B
:1022900000E0002004B070BD0800002000366E0190
:1022A00030B583B004000B00822040006168814299
:1022B00017D082204000616881422FD18021C9005F
:1022C000A06888421CD00092002280212000FFF7E5
:1022D0003BFF00282AD0636D20221343636503204F
:1022E00024E0A16880200002814203D08020C00049
:1022F0008142DED1206801684025A9430160D8E70A
:102300000092002201212000FFF71EFF00280DD0BF
:10231000636D202213436365032007E000920022CF
:1023200001212000FFF710FF002801D103B030BDCC
:10233000636D2022134363650320F7E770B5041E25
:102340005ED0436A002B07D10533FF3342689A42BF
:1023500005D00023C36102E0002303614361002331
:10236000A3625133E35C002B43D051220221A154DC
:10237000206803684025AB43036082235B006068EC
:10238000034084200002A568284003438020000108
:10239000E56828400343206901400B43012160693F
:1023A0000840034380208000A5692840034338206B
:1023B000E569284003438020256A284003438020A4
:1023C0008001A56A2840256803432B60608B0423A5
:1023D00003401020656A2840256803436B6020682D
:1023E000C369084D2B40C36100236365A1540020DD
:1023F00070BD50330022E2542000FEF739FEB4E7EE
:102400000120F5E7FFF7FFFFF0B5CE4600B584B039
:102410000400019191461D005023C35C012B00D1A3
:10242000C7E050230122C254FFF730F806005123C1
:10243000E35CDFB2012B00D0A7E00199002900D1B5
:10244000A4E04B46002B00D1A0E051230322E2542C
:102450000023636521634A46A286E286A363A387BD
:10246000E3876364236480231B02A2689A421ED020
:1024700023681A68520603D41A6840210A431A6076
:1024800080231B01E2689A421DD06368002B02D0B2
:102490004B46012B4ED1236B1B7822681373236BA1
:1024A00001332363E38E013B9BB2E38642E0226863
:1024B000136840218B431360226811688023DB017D
:1024C0000B431360D4E76368002B02D04B46012B0B
:1024D00014D12368226B1288DA60236B02332363E2
:1024E000E38E013B9BB2E38608E0FEF7CFFF801B43
:1024F000A84201D36B1C54D1002D54D0E38E9BB263
:10250000002B2AD023689A689207EED5226B128896
:10251000DA60236B02332363E38E013B9BB2E386D5
:10252000ECE7FEF7B3FF801BA84201D36B1C3CD144
:10253000002D3CD0E18E89B200290ED023689A6824
:102540009207EED5226B12781A73236B0133236343
:10255000E18E013989B2E186ECE7320029002000E2
:10256000FFF766FE002801D020236365A368002BD7
:1025700006D103932368DA6803929B680393039B55
:10258000636D002B02D1002700E0022751230122B6
:10259000E254013B0022E254380004B080BCB9464A
:1025A000F0BD0327F2E70327F0E70327EEE7032751
:1025B000ECE70227F0E7F0B585B004000091019246
:1025C0001E000A9D5023C35C012B00D108E150235B
:1025D0000122C254FEF75AFF07005123E35CD9B22F
:1025E0006268012B0BD082235B009A4200D0DEE0B0
:1025F000A368002B00D0E3E0042900D0E2E0009BB8
:10260000002B00D1E0E0019B002B00D1DEE0002E8A
:1026100000D1DDE05123E35C042B02D051230522DD
:10262000E25400236365019AA263E687A687009AB5
:102630002263E686A6862364636423681A685206CA
:1026400003D41A6840210A431A6080231B01E26800
:102650009A4211D06368002B01D0012E0AD1236B5E
:102660001B7822681373236B01332363E38E013BD2
:102670009BB2E386012666E06368002B01D0012E41
:102680000AD12368226B1288DA60236B023323633A
:10269000E38E013B9BB2E38601261AE023689A6829
:1026A000D2070ED5E28F92B2002A0AD0DB68A26B65
:1026B0001380A36B0233A363E38F013B9BB2E387D9
:1026C0000126FEF7E3FEC01BA84202D36B1C00D01C
:1026D00080E0E38E9BB2002B03D1E38F9BB2002BF3
:1026E0004FD023689A689207D8D5E28E92B2002A1A
:1026F000D4D0012ED2D1226B1288DA60236B023340
:102700002363E38E013B9BB2E3860026C6E7236882
:102710009A68D2070ED5E28F92B2002A0AD0DB68FF
:10272000A26B1370A36B0133A363E38F013B9BB2D6
:10273000E3870126FEF7AAFEC01BA84201D36B1C4B
:102740004AD1002D4AD0E38E9BB2002B03D1E38FF8
:102750009BB2002B15D023689A689207D7D5E28EDA
:1027600092B2002AD3D0012ED1D1226B12781A73E3
:10277000236B01332363E38E013B9BB2E386002688
:10278000C5E73A0029002000FFF752FD00280AD1D2
:10279000A368002B0CD103932368DA6803929B682B
:1027A0000393039B04E020236365012000E00220E3
:1027B00051230122E254013B0022E25405B0F0BD56
:1027C0000220F5E70220F3E70120F1E70120EFE71F
:1027D0000120EDE70320EBE70320E9E70320E7E72B
:1027E0000220EBE7F0B5C64600B584B004000391C3
:1027F00090461D0082235B0042689A4237D05023E6
:10280000E35C012B00D1A4E050230122E254FEF747
:102810003DFE07005123E35CDEB2012B00D084E0D3
:102820000399002900D181E04346002B00D17DE0CF
:1028300051230422E25400236365A1634246A28728
:10284000E2872363A386E3862364636480231B02F9
:10285000A2689A4218D023681A68520603D41A68EC
:1028600040210A431A60E368002B21D03CE08368D2
:10287000002BC4D151330422C254009543460A00B0
:10288000FFF799FE060057E02268136840218B434A
:1028900013602268136830490B401360DBE7FEF7D2
:1028A000F5FDC01BA84201D36B1C4AD1002D4AD0B4
:1028B000E18F89B200292AD023689A68D207EED521
:1028C0001B7BA26B1370A36B0133A363E38F013BEC
:1028D0009BB2E387ECE7FEF7D9FDC01BA84201D30A
:1028E0006B1C32D1002D32D0E18F89B200290ED07D
:1028F00023689A68D207EED5DB68A26B1380A36BBE
:102900000233A363E38F013B9BB2E387ECE73A001A
:1029100029002000FFF7C4FC002801D020236365B4
:10292000636D002B02D1002600E002265123012214
:10293000E254013B0022E254300004B080BCB846AF
:10294000F0BD0326F2E70326F0E70326EEE70326B1
:10295000ECE70226F0E7C046FFBFFFFFD0B504005A
:10296000016883680269134342691343C2691343D0
:102970000A689648024013430B60226853689449E2
:102980000B40E1680B435360A1692268914B9A4266
:1029900001D0236A194393688F4803400B43936027
:1029A00022688E4B9A4216D08D4B9A4224D0894B86
:1029B0009A4232D0102387498A425CD0E069802253
:1029C0001202904200D193E0082B00D9F7E09B005F
:1029D000844AD3589F46844BD96C03230B40022B67
:1029E00033D005D8002B32D0012B32D10333E2E7AC
:1029F000032B30D10533DEE77B4BD96C0C230B4026
:102A0000082B2AD005D8002B29D0042BD3D0102393
:102A1000D1E70C2B25D1043BCDE7734BDB6CC021F8
:102A200009010B40802109018B421CD007D8002BE3
:102A30001BD08021C9008B4219D10423BBE7C021E0
:102A400009018B4215D10823B5E70223B3E701231F
:102A5000B1E71023AFE71023ADE70223ABE7002374
:102A6000A9E71023A7E70223A5E70023A3E7102384
:102A7000A1E710239FE7042B35D00BD8002B2CD0D7
:102A8000022B05D1584B1B68DB062FD4574805E0B5
:102A9000012073E0082B1ED18020000262685300E1
:102AA0009B18834200D97EE01303834200D27CE06E
:102AB000070E060250080021801979410023FDF716
:102AC000AFFB4B4BC2184B4B9A4200D96FE02368C7
:102AD000D860002052E0012050E0FFF719FA0028EA
:102AE000DCD100204AE0FEF705FEF8E74248D5E7D2
:102AF000082B5ED89B00414AD3589F46FFF708FA3F
:102B0000002858D0400063685B08C0186168FDF772
:102B1000FBFA83B20004000C01001039384A9142DC
:102B20004BD80F2293431A00400807231840104344
:102B30002368D860002021E0FFF7FAF9E0E72A4B8C
:102B40001B68DB0604D42948DCE7FEF7D3FDD7E792
:102B50002948D7E7FFF7DCF9002832D063685B0823
:102B600018186168FDF7D0FA0004000C0200103A52
:102B7000234B9A4227D82368D8600020002363663D
:102B8000A366D0BDFFF7D4F9E6E7174B1B68DB0659
:102B900007D41648E2E7FEF7ADFDDDE7802000022E
:102BA000DCE71548DAE70120E8E70120E6E7012045
:102BB000E4E70120E2E70020E0E70120DEE7012072
:102BC000DCE70020DAE70120D8E7C046F369FFEF31
:102BD000FFCFFFFF00480040FFF4FFFF0038014037
:102BE0000044004040410008001002400024F4006E
:102BF00000FDFFFFFFFC0F0000093D0064410008DD
:102C0000EFFF0000436ADB0706D5026853682C49D2
:102C10000B40816A0B435360436A9B0706D50268E9
:102C2000536828490B40C16A0B435360436A5B07F2
:102C300006D50268536824490B40016B0B4353606F
:102C4000436A1B0706D50268536820490B40416B55
:102C50000B435360436ADB0606D5026893681C4940
:102C60000B40816B0B439360436A9B0606D5026859
:102C7000936818490B40C16B0B439360436A5B0632
:102C80000BD50268536814490B40016C0B43536029
:102C900080235B03026C9A420AD0436A1B0606D566
:102CA000026853680D490B40816C0B4353607047B9
:102CB000026853680A490B40416C0B435360ECE7D0
:102CC000FFFFFDFFFFFFFEFFFFFFFBFFFF7FFFFF9B
:102CD000FFEFFFFFFFDFFFFFFFFFEFFFFFFFF7FF4C
:102CE000FFFF9FFFF8B5CE46474680B506000D00B2
:102CF00017009946089B98463368DC692C40641B92
:102D000063425C41BC423DD143460133F4D0FEF7FF
:102D1000BDFB4B46C01A404521D84346002B1ED070
:102D200033681A685207E7D5DA691205E4D58022BC
:102D300012011A623268136815490B401360326839
:102D40009368A331FF318B4393602023B367F3670C
:102D50008022B35054330022F254032013E032682F
:102D600013680B490B40136032689368A331FF313D
:102D70008B4393602023B367F36754330022F254EC
:102D8000032000E00020C0BCB946B046F8BDC046F4
:102D90005FFEFFFFF0B5C64600B582B004000D002F
:102DA00090461E00836F202B66D1002969D0002A2F
:102DB00069D080235B0182689A421ED07423E35C51
:102DC000012B62D074230122E2540C330022E25022
:102DD0005F3BA367FEF75AFB070050234246E252CF
:102DE0000233E25280235B01A2689A420CD0002396
:102DF000984674230022E2541DE00369002BDDD1C4
:102E0000CB07DBD5012038E02369002B02D000235B
:102E10009846EEE7A8460025EBE743461B88226864
:102E2000DB05DB0D936202239C46E0445223E25A09
:102E3000013A92B2E2525223E35A9BB2002B0FD0D6
:102E400000963B00002280212000FFF74BFF002866
:102E50001DD1002DE1D02A7823689A620135E5E77B
:102E600000963B00002240212000FFF73BFF002896
:102E70000FD12023A36700E0022002B080BCB84637
:102E8000F0BD0120F9E70120F7E70220F5E7032074
:102E9000F3E70320F1E7000030B583B0040080239E
:102EA0000022C250FEF7F2FA0500226812681307EA
:102EB0000DD423681B685B0716D42023A367E36740
:102EC000002323667422A354002003B030BD802168
:102ED0000C4B00930300002289032000FFF702FF40
:102EE0000028E6D00320F0E78021064B00932B005A
:102EF0000022C9032000FFF7F5FE0028DDD00320E3
:102F0000E3E7C046FFFFFF0110B5041E2ED0836F1C
:102F1000002B21D02423A3672268136801218B434F
:102F200013602000FFF71AFD012814D0636A002BFC
:102F300018D1226853680E490B4053602268936889
:102F40002A218B4393602268136829390B4313604D
:102F50002000FFF7A1FF10BD74330022C254FEF71A
:102F6000F5F9D7E72000FFF74DFEE2E70120F2E791
:102F7000FFB7FFFF014B18687047C04614000020E0
:102F800070B50C4D0C4E761BB61005D0002408CD44
:102F900001349847A642FAD100F006FD074D084ECD
:102FA000761BB61005D0002408CD01349847A64200
:102FB000FAD170BD94410008944100089441000882
:102FC0009C41000810B5034B0100186800F004F89C
:102FD00010BDC04614000020F0B54E464546DE4602
:102FE0005746E0B50D000B35060083B0162D22D8EC
:102FF000102900D9B2E000F003FB102518230220AD
:10300000CB4FFB181A005C68083A944200D1B5E037
:10301000032362689A431300E268A168CA60916062
:103020000122E318596830000A435A6000F0F0FAB0
:103030002000083095E007239D4300D58EE0A9428B
:1030400000D98BE000F0DCFAFC235B009D4200D24B
:10305000A5E1680A00D18BE0042800D978E1382383
:103060009846A80980443930C100B14F79184C689E
:103070000839A1420ED003239C4604E0002ACBDA93
:10308000E468A14206D06246636893435A1B0F2A44
:10309000F4DD40463A003C690832944200D178E0C1
:1030A00003236168994389460B00491B0F2900DD02
:1030B00079E17A613A610029B2DA80229200914581
:1030C00000D30EE15909DA0801238B40D200796858
:1030D000D2190B4391687B60E260A1609460CC6080
:1030E000012182109140994259D80B4205D1032207
:1030F0009043490004300B42FBD003239846C300A1
:103100009946B944CC4682466346DC68A44507D15B
:103110002AE1002A00DB33E1E468A44500D123E181
:103120004246636893435A1B0F2AF2DD0120804612
:10313000611905436560A068E5680837C560A86047
:1031400040461043F960B9604860CF6030008F603E
:10315000E25000F05DFA2000083002E00C2300206D
:10316000336003B0F0BCBB46B246A946A046F0BDF2
:1031700080213F2340209846890076E7DC680230B2
:10318000A34200D044E73A003C690832944200D0A0
:1031900086E701217B68821091409942A5D90323DB
:1031A000BC6862689A439146954203D8531B0F2B23
:1031B00000DD88E023004B445E4A01935E4B93465A
:1031C0001B681268EB18013200D13BE15B4A944660
:1031D00063441B0B1B0300933000009900F020FA9E
:1031E00003008046013300D1F8E0019B834200D9FF
:1031F000F2E0534B19009A460968009B8C465146F1
:1032000063440B6001991A00814200D150E15B4692
:103210001B68013300D155E1434601995B1A9A18A6
:1032200053461A600723424641461A40019219420A
:1032300000D111E108239846881A424B0099804436
:1032400041449B1A5B1A1B051B0D009130001900AD
:103250009B4600F0E5F9431C00D14FE14346C01AFC
:1032600003005B440093534652461B6801215B44B4
:10327000136042464046BA60009A0A434260BC422C
:1032800000D123E14A460F2A00D821E107200C3A59
:10329000824360680140052011436160A1184860C5
:1032A00088600F2A00D934E14246444652682649D4
:1032B0000868984200D20B6024490868984200D3FD
:1032C0008EE00B608CE00122290013431143651945
:1032D00061603000BD606B6000F09AF9200008303A
:1032E0003FE75A0A042A71D9142A00D9C4E0110010
:1032F0005C325B31D20008235B429C46BA1894448E
:1033000063469A6803239846944500D19DE043465E
:1033100051689943494502D992689445F7D1D368D9
:103320009C467B686146A260E1608C60D460D7E611
:103330004004002048080020E80900200F10000089
:10334000B809002008100000E0090020E40900206E
:10335000142852D9542800D996E06E239846280B99
:1033600080446F30C10080E608239B46073BDC4465
:103370009B46DA4443465246134200D0C4E64CE032
:103380000122E318596830000A435A60E368A268D2
:10339000D3609A6000F03CF920000830E1E62B0091
:1033A000E80808332CE6012360191D436560786145
:1033B0003861C26082601A004B460A4342603000A6
:1033C000E15000F025F920000830CAE69A09110002
:1033D00039323831D2008EE7BC4260D0BC686268B6
:1033E00003239A43531B954202D80F2B00DD6AE753
:1033F000300000F00DF90020B3E65B2398468044CE
:103400005C30C10031E608235B429C46E1444B46F8
:103410009B6801384B4500D098E043460342F2D107
:103420007B688B437B604900994200D9B7E600294D
:1034300004D1B4E6042294464900E2440B42F9D098
:1034400050465CE610330093C6E68910023B8B4081
:1034500079680B437B6065E7009B300043445B4227
:103460001B051B0D19009B4600F0DAF8431C00D029
:10347000F4E600239B46F6E6542A2BD81A0B1100DB
:103480006F326E31D20036E7AA235B0098422BD808
:10349000DD3B9846E80B80447830C100E5E52C4BD5
:1034A000009A9A461B689C46534662441A60AEE6F0
:1034B000090500D0ABE6009ABC684A4401310A43D2
:1034C0006260F4E65B4642461A60ABE64446EEE6CE
:1034D00041608DE7AA2149008A4224D8DA0B110005
:1034E00078327731D20006E71A4B984224D87C23F1
:1034F0009846A80C80447D30C100B6E5009A019B37
:1035000094464246083B63449B1A009300239B4623
:10351000A9E621003000083100F00AF95346BC68E2
:103520001B686268C3E60B498A420BD89A0C1100EB
:103530007D327C31D200DEE6FE217E237F2098465C
:10354000890092E5FE227E219200D4E67B686AE73C
:10355000B809002054050000F0B50500830749D0E4
:10356000541E002A45D003000326CAB202E00135EA
:10357000013C3ED301332A703342F8D1032C30D9B9
:10358000FF220A40150215432A0415430F2C34D993
:103590002700103F3F093E01B4461E001A001036B6
:1035A0006644156055609560D5601032B242F8D11E
:1035B00001373F01DB190F270C22274022403C0036
:1035C000002A0ED03E1FB608B400A4461A001C1DE7
:1035D000644420C2A242FCD103240136B6009B19E8
:1035E0003C40002C05D0C9B21C19197001339C4213
:1035F000FBD1F0BD03001400C0E72700E2E7C0469E
:1036000010B5024800F076F910BDC046F009002060
:1036100010B5024800F070F910BDC046F009002056
:10362000002370B5064D040008002B60FDF74AFE2C
:10363000431C00D070BD2B68002BFBD02360F9E742
:10364000F4090020034B10B5002B02D0024800F013
:1036500005F810BD000000006D36000810B501002F
:1036600000230022002000F049F910BD70B5074D7D
:10367000074C641BA41005D0013CA300EB589847ED
:10368000002CF9D100F096F970BDC0469C410008AD
:10369000A0410008F8B50C000500FFF7B1FF204F6E
:1036A000BB685E6803239E431E4B341B9C466444E8
:1036B000240B013C113324039C4207DB002128002A
:1036C000FFF7AEFFBB689B19984204D02800FFF7B4
:1036D0009FFF0020F8BD28006142FFF7A1FF431CB7
:1036E0000DD00122BB68361B16435E600E4B2800CE
:1036F0001A68141B1C60FFF78BFF0120EAE700210A
:103700002800FFF78DFFBA68831A0F2BDEDD07490B
:103710000968401A0449086001210B435360D5E74A
:1037200040040020EF0F0000B809002048080020E6
:10373000F0B5C64605000C0000B500294FD0FFF7D4
:103740005FFF210008394C68012622000320B243A4
:103750008F187B688343624898468368BB426AD06F
:1037600043467B6026421ED108239C460C68844455
:10377000091B12198C6864454FD0CB68E3609C60CC
:103780004346FC186468344211D1BB68554C42442E
:10379000A34200D17EE0FC68DC60A36001231343F8
:1037A0004B608A5006E0FC1864683442EDD0164342
:1037B0004E603A6080239B009A4213D25409D3088A
:1037C0000122A2404468DB0022434260181883684B
:1037D000C8608B608160D9602800FFF719FF80BC4A
:1037E000B846F0BD530A042B3ED89409260039345C
:1037F0003836E40004192368083C03279C4242D071
:103800005868B843904202D99B689C42F8D1DC6862
:10381000CC608B60A160D960DEE74346F818406851
:10382000304257D1FB68B86842441643C360986081
:103830004E608A50D0E713004344264206D10A68FE
:10384000891A8C689B18CA68E260946001221A4346
:103850004A60254A816012689A42BDD8234B2800ED
:103860001968FFF717FFB7E7142B07D9542B1AD89D
:10387000140B26006F346E36E400BBE71E005C3389
:103880005B36DC00B6E70122B610B2404668324330
:103890004260BDE7D9609960CB608B600123134320
:1038A0004B608A5098E7AA246400A34205D8D40B41
:1038B000260078347736E4009CE70D4CA34205D807
:1038C000940C26007D347C36E40093E7FE247E26AB
:1038D000A4008FE7330013434B603A607CE7C04697
:1038E00040040020480400204C080020E809002083
:1038F000540500007047C0467047C046F0B5D64634
:103900004F464646C0B5264F82B0060038689246FC
:1039100098468946FFF7EEFF224B1B680193A423CC
:10392000019A5B00D558002D2ED06C681F2C30DC1E
:10393000002E0FD1631C6B604B460234A400386824
:103940006351FFF7D9FF002002B0E0BCBA46B14690
:10395000A846F0BD882251462800A300EB189950D4
:10396000873AA2408930FF30016811430160842109
:10397000404649005850022EDCD12B008D33FF33D6
:1039800019680A431A60D5E715004D35FF35D55043
:10399000CBE73868FFF7B0FF01204042D4E7C046CC
:1039A0005008002088410008F8B5C046F8BC08BCA3
:1039B0009E467047F8B5C046F8BC08BC9E467047A6
:1039C0004550445F434F4D4D414E443A2046414996
:1039D0004C454420544F2054582F5258202D2048F5
:1039E000414C5F42555359004550445F434F4D4D44
:1039F000414E443A204641494C454420544F2054BE
:103A0000582F5258202D2048414C5F54494D454F66
:103A1000555400004550445F434F4D4D414E443A8C
:103A2000204641494C454420544F2054582F525869
:103A3000202D2048414C5F4552524F52000000005B
:103A40004550445F434F4D4D414E443A2046414915
:103A50004C454420544F2054582F5258202D205567
:103A60004E4B4E4F574E204552524F5200000000D1
:103A7000506978656C206F66662073637265656E49
:103A800021202825642C202564290000060307072F
:103A9000170400FFC800010F160100F80260A5F826
:103AA000027323F8027C00FE00000000003E5B4F22
:103AB0005B3E3E6B4F6B3E1C3E7C3E1C183C7E3C8E
:103AC000181C577D571C1C5E7F5E1C00183C18009C
:103AD000FFE7C3E7FF0018241800FFE7DBE7FF302C
:103AE000483A060E2629792926407F050507407F9A
:103AF00005253F5A3CE73C5A7F3E1C1C08081C1C0D
:103B00003E7F14227F22145F5F005F5F06097F0102
:103B10007F006689956A606060606094A2FFA294ED
:103B200008047E040810207E201008082A1C0808BB
:103B30001C2A08081E101010100C1E0C1E0C303809
:103B40003E3830060E3E0E06000000000000005F0A
:103B500000000007000700147F147F14242A7F2A26
:103B600012231308646236495620500008070300E8
:103B7000001C2241000041221C002A1C7F1C2A0834
:103B8000083E080800807030000808080808000097
:103B900060600020100804023E5149453E00427F0B
:103BA000400072494949462141494D331814127F5A
:103BB0001027454545393C4A4949314121110907FA
:103BC0003649494936464949291E0000140000007B
:103BD000403400000008142241141414141400414D
:103BE00022140802015909063E415D594E7C12110A
:103BF000127C7F494949363E414141227F41414142
:103C00003E7F494949417F090909013E41415173BC
:103C10007F0808087F00417F41002040413F017F2D
:103C2000081422417F404040407F021C027F7F04F5
:103C300008107F3E4141413E7F090909063E41513E
:103C4000215E7F09192946264949493203017F012E
:103C5000033F4040403F1F2040201F3F4038403F2F
:103C6000631408146303047804036159494D430045
:103C70007F4141410204081020004141417F04027C
:103C80000102044040404040000307080020545413
:103C900078407F28444438384444442838444428F1
:103CA0007F385454541800087E090218A4A49C7844
:103CB0007F0804047800447D40002040403D007FA0
:103CC0001028440000417F40007C047804787C0880
:103CD0000404783844444438FC1824241818242454
:103CE00018FC7C08040408485454542404043F4439
:103CF000243C4040207C1C2040201C3C4030403C68
:103D000044281028444C9090907C4464544C4400C7
:103D1000083641000000770000004136080002012B
:103D20000204023C2623263C1EA1A161123A404017
:103D3000207A385454555921555579412254547894
:103D400042215554784020545579400C1E5272122D
:103D500039555555593954545459395554545800B6
:103D600000457C410002457D420001457C407D12BA
:103D700011127DF0282528F07C545545002054541C
:103D80007C547C0A097F4932494949323A444444C7
:103D90003A324A4848303A4141217A3A4240207802
:103DA000009DA0A07D3D4242423D3D4040403D3C03
:103DB00024FF2424487E4943662B2FFC2F2BFF0928
:103DC00029F620C0887E090320545479410000441C
:103DD0007D413048484A32384040227A007A0A0A07
:103DE000727D0D19317D2629292F2826292929267A
:103DF00030484D4020380808080808080808382FBF
:103E000010C8ACBA2F102834FA00007B0000081448
:103E10002A142222142A14085500550055AA55AA1E
:103E200055AAFF55FF55FF000000FF00101010FFBE
:103E300000141414FF001010FF00FF1010F010F019
:103E4000141414FC001414F700FF0000FF00FF140A
:103E500014F404FC141417101F10101F101F141456
:103E6000141F00101010F0000000001F10101010A0
:103E70001F10101010F010000000FF101010101094
:103E800010101010FF10000000FF140000FF00FFD2
:103E900000001F10170000FC04F41414171017146E
:103EA00014F404F40000FF00F71414141414141490
:103EB000F700F7141414171410101F101F14141403
:103EC000F4141010F010F000001F101F0000001F6D
:103ED00014000000FC140000F010F01010FF10FFA0
:103EE000141414FF141010101F00000000F010FF35
:103EF000FFFFFFFFF0F0F0F0F0FFFFFF0000000019
:103F000000FFFF0F0F0F0F0F3844443844FC4A4A9C
:103F10004A347E02020606027E027E026355494151
:103F2000633844443C04407E201E2006027E020288
:103F300099A5E7A5991C2A492A1C4C7201724C309C
:103F40004A4D4D303048784830BC625A463D3E4973
:103F50004949007E0101017E2A2A2A2A2A44445F17
:103F6000444440514A444040444A51400000FF010B
:103F700003E080FF000008086B6B08361236243619
:103F8000060F090F0600001818000000101000307E
:103F900040FF0101001F01011E00191D1712003C06
:103FA0003C3C3C0000000000496E697469616C692A
:103FB0007A696E6720646973706C6179205352412D
:103FC0004D2E2E2E0A00000057726974696E67200C
:103FD000746F2061646472657373203078303030A0
:103FE000382E2E2E0A5B3078303030385D203C3D44
:103FF0003D20307825780A0052656164696E67203B
:1040000066726F6D206164647265737320307830FE
:104010003030382E2E2E0A005B3078303030385D4C
:10402000203D3D3E20307825780A0000496E6974B5
:1040300069616C697A696E6720646973706C617913
:104040002E2E2E0053657474696E67206469737038
:104050006C617920726F746174696F6E2E2E2E0000
:104060005072696E74696E6720746F206469737032
:104070006C61792E2E2E0000446F6E6521000000C9
:104080000A48656C6C6F20776F726C642C0A0A4961
:10409000276D2046726573684279746521000000BF
:1040A0001B5B324A1B5B48000D0C00002D0000001A
:1040B000A80F0008C60F0008B40F0008B40F0008CE
:1040C000B40F0008B40F0008B40F0008B40F0008C4
:1040D000B40F0008B40F0008B40F0008B40F0008B4
:1040E000EA0F0008B40F0008B40F0008B40F00086E
:1040F000FE0F0008B40F0008B40F0008B40F00084A
:10410000B40F00080C100008303132333435363724
:104110003839414243444546000000000000000099
:104120000000000001020304060708090000000067
:1041300001020304030406080C10182030000000DC
:10414000542B0008842B00088A2B0008BE2B000883
:10415000962B0008BE2B0008BE2B0008BE2B0008C3
:104160009C2B0008FC2A0008382B00083E2B000876
:10417000B22B00084A2B0008B22B0008B22B000813
:0C418000B22B0008042B000818000020DF
:08418C0030C1FF7F01000000BB
:0841940045360008E9000008AF
:04419C00C100000856
:1041A00001000100010100000000200001000000EA
:1041B000040000001800002000000000040300209C
:1041C0006C030020D4030020000000000000000069
:1041D00000000000000000000000000000000000DF
:1041E00000000000000000000000000000000000CF
:1041F00000000000000000000000000000000000BF
:1042000000000000000000000000000000000000AE
:10421000000000000000000000000000000000009E
:10422000000000000000000000000000000000008E
:10423000000000000000000000000000000000007E
:10424000000000000000000000000000000000006E
:10425000000000000000000000000000000000005E
:1042600001000000000000000E33CDAB34126DE6FB
:10427000ECDE05000B000000000000000000000064
:10428000000000000000000000000000000000002E
:10429000000000000000000000000000000000001E
:1042A000000000000000000000000000000000000E
:1042B00000000000000000000000000000000000FE
:1045E0000000000000000000400400204004002003
:1045F00048040020480400205004002050040020FB
:1046000058040020580400206004002060040020AA
:10461000680400206804002070040020700400205A
:10462000780400207804002080040020800400200A
:1046300088040020880400209004002090040020BA
:104640009804002098040020A0040020A00400206A
:10465000A8040020A8040020B0040020B00400201A
:10466000B8040020B8040020C0040020C0040020CA
:10467000C8040020C8040020D0040020D00400207A
:10468000D8040020D8040020E0040020E00400202A
:10469000E8040020E8040020F0040020F0040020DA
:1046A000F8040020F8040020000500200005002088
:1046B0000805002008050020100500201005002036
:1046C00018050020180500202005002020050020E6
:1046D0002805002028050020300500203005002096
:1046E0003805002038050020400500204005002046
:1046F00048050020480500205005002050050020F6
:1047000058050020580500206005002060050020A5
:104710006805002068050020700500207005002055
:104720007805002078050020800500208005002005
:1047300088050020880500209005002090050020B5
:104740009805002098050020A0050020A005002065
:10475000A8050020A8050020B0050020B005002015
:10476000B8050020B8050020C0050020C0050020C5
:10477000C8050020C8050020D0050020D005002075
:10478000D8050020D8050020E0050020E005002025
:10479000E8050020E8050020F0050020F0050020D5
:1047A000F8050020F8050020000600200006002083
:1047B0000806002008060020100600201006002031
:1047C00018060020180600202006002020060020E1
:1047D0002806002028060020300600203006002091
:1047E0003806002038060020400600204006002041
:1047F00048060020480600205006002050060020F1
:1048000058060020580600206006002060060020A0
:104810006806002068060020700600207006002050
:104820007806002078060020800600208006002000
:1048300088060020880600209006002090060020B0
:104840009806002098060020A0060020A006002060
:10485000A8060020A8060020B0060020B006002010
:10486000B8060020B8060020C0060020C0060020C0
:10487000C8060020C8060020D0060020D006002070
:10488000D8060020D8060020E0060020E006002020
:10489000E8060020E8060020F0060020F0060020D0
:1048A000F8060020F806002000070020000700207E
:1048B000080700200807002010070020100700202C
:1048C00018070020180700202007002020070020DC
:1048D000280700202807002030070020300700208C
:1048E000380700203807002040070020400700203C
:1048F00048070020480700205007002050070020EC
:10490000580700205807002060070020600700209B
:10491000680700206807002070070020700700204B
:1049200078070020780700208007002080070020FB
:1049300088070020880700209007002090070020AB
:104940009807002098070020A0070020A00700205B
:10495000A8070020A8070020B0070020B00700200B
:10496000B8070020B8070020C0070020C0070020BB
:10497000C8070020C8070020D0070020D00700206B
:10498000D8070020D8070020E0070020E00700201B
:10499000E8070020E8070020F0070020F0070020CB
:1049A000F8070020F8070020000800200008002079
:1049B0000808002008080020100800201008002027
:1049C00018080020180800202008002020080020D7
:1049D0002808002028080020300800203008002087
:1049E0003808002038080020FFFFFFFF0000020009
:0449F000EC090020AE
:04000005080013A933
:00000001FF
