:020000040800F2
:10000000002000205D330008F12D0008F32D0008CA
:1000100000000000000000000000000000000000E0
:10002000000000000000000000000000F52D0008A6
:100030000000000000000000F72D0008F92D000866
:10004000AD330008AD330008AD330008AD33000810
:10005000AD330008AD330008012E0008AD330008B1
:10006000AD330008ED2E0008AD330008AD330008B5
:10007000FD2E0008AD330008000000000D2F000821
:10008000000000000930000800000000000000002F
:10009000AD33000800000000AD330008AD330008A8
:1000A000AD330008AD330008AD330008AD330008B0
:1000B000AD330008AD330008AD330008AD330008A0
:1000C00010B5064C2378002B07D1054B002B02D02E
:1000D000044800E000BF0123237010BD4404002049
:1000E0000000000048650008044B10B5002B03D049
:1000F0000349044800E000BF10BDC04600000000F6
:100100004804002048650008002243088B4274D34D
:1001100003098B425FD3030A8B4244D3030B8B4208
:1001200028D3030C8B420DD3FF22090212BA030C11
:100130008B4202D31212090265D0030B8B4219D3F2
:1001400000E0090AC30B8B4201D3CB03C01A524112
:10015000830B8B4201D38B03C01A5241430B8B425A
:1001600001D34B03C01A5241030B8B4201D30B0343
:10017000C01A5241C30A8B4201D3CB02C01A52416A
:10018000830A8B4201D38B02C01A5241430A8B422D
:1001900001D34B02C01A5241030A8B4201D30B0216
:1001A000C01A5241CDD2C3098B4201D3CB01C01A30
:1001B000524183098B4201D38B01C01A524143093A
:1001C0008B4201D34B01C01A524103098B4201D328
:1001D0000B01C01A5241C3088B4201D3CB00C01A95
:1001E000524183088B4201D38B00C01A524143080D
:1001F0008B4201D34B00C01A5241411A00D2014632
:10020000524110467047FFE701B5002000F006F8A4
:1002100002BDC0460029F7D076E770477047C04658
:10022000002B11D1002A0FD1002900D1002802D0C3
:100230000021C943080007B4024802A140180290F7
:1002400003BDC046D9FFFFFF03B4684601B502985D
:1002500000F034F8019B9E4602B00CBC7047C046CB
:10026000F0B5CE46474680B5070099463B0C9C4604
:1002700013041B0C1D000E0061460004140C000C3E
:1002800045434B4360436143C0182C0C20188C46F7
:10029000834203D980235B029846C444494679438C
:1002A0007243030C63442D042D0CC918000440193B
:1002B0008918C0BCB946B046F0BDC046F0B5574637
:1002C0004E464546DE46E0B504000D00924699468E
:1002D00083B08B4230D82DD04946504601F010FDF6
:1002E00029000600200001F00BFD331A9846203B40
:1002F0009B4633D45A465346934042461F005346CA
:1003000093401E00AF423AD8AF4200D178E05B463E
:10031000A41BBD41002B00DA75E0002200230092EF
:10032000019301235A46934001930123424693408F
:10033000009328E08242CFD900220023009201934B
:100340000C9B002B01D01C605D600098019903B0EC
:10035000F0BCBB46B246A946A046F0BD42462023AB
:100360009B1A5246DA40414613004A468A4017001B
:1003700042461F43534693401E00AF42C4D9002259
:100380000023009201934346002BD9D0FB0772084B
:100390001A4346467B080EE0AB4201D1A2420CD87C
:1003A000A41A9D41012024196D410021013E241809
:1003B0004D41002E06D0AB42EED9013E24196D41CD
:1003C000002EF8D1009801995B4600196941002B75
:1003D00024DB2B005A464446D3402A00E2401C004E
:1003E0005B461500002B2ADB26009E4033002600CA
:1003F0004746BE403200801A9941009001919FE724
:10040000A342BCD883E74246202300219B1A002246
:10041000009101920122DA40019286E742462023B0
:100420009B1A2A0046469A402300F3404446134351
:100430002A00E2401C005B461500002BD4DA42463D
:100440002F002023260097409B1ADE403B003343B9
:10045000CDE7C046F0B5C64643025B0A4E024500F2
:100460004F00DA00C40F9C46700A904600B52D0E6E
:100470003F0EC90FB6098C424BD0EA1B002A36DD6D
:10048000002F61D0FF2D00D1ADE08023DB041E439F
:100490001B2A00DCD3E001204346181A430100D494
:1004A0008CE080018709380001F00CFC053887409A
:1004B000854200DCB6E02D1AB3483840430704D02B
:1004C0000F230340042B00D00430430100D478E014
:1004D0006A1CFE2D65D08001430A9C46D2B2634659
:1004E000D0051843E407204380BCB846F0BD002A7D
:1004F00035D07A1B002D00D0AFE04346002B00D151
:10050000A7E0531E012A00D12FE1FF2A69D01A006B
:10051000AAE0E91B002970DD002F37D0FF2D62D043
:100520008023DB041E431B2900DCB0E00120404493
:10053000430143D50135FF2D33D00123934A0340B6
:10054000400810401843B9E7002E00D183E0511E47
:10055000012A00D1D8E0FF2A45D00A0098E7FE27FB
:100560006A1C174200D086E0002D00D0B7E0434659
:10057000002B00D1F3E00022002EB0D0981B4301E5
:1005800000D4FAE043460C00F01A97E7002E00D1A1
:10059000C8E04A1E012900D1AEE0FF2923D0110096
:1005A000C1E70023FF229C4699E7FE216A1C114205
:1005B00077D0FF2AF5D0150046447008430700D0D5
:1005C0007EE7C308FF2D0ED05B025B0A9C46EAB2B1
:1005D00085E7002E07D08022D203134203D01042B9
:1005E00001D10C000300002BDBD08020C003184396
:1005F0004002430A9C46FF2271E70029D5D07A1BAE
:10060000002D60D14346002B24D0531E012A73D005
:10061000FF2AE7D01A001B2A00DC85E001203D00FC
:10062000801985E720233A00451B38000135EA4050
:100630005D1BA840431E9841002510433EE7202340
:1006400030009B1A31009840D140431E9841084326
:1006500022E70C0003001500B4E7FF2FC1D0802370
:100660004046DB04184380461B2A51DD01200C0064
:100670003D00301A12E743469F1B7B012BD4002F0D
:1006800000D010E70023002400229C4627E7202307
:1006900032003000CA40591A8840431E9841104326
:1006A00045E7002D4AD14346002B63D00022002E9F
:1006B00000D114E730004044430100D47EE7324BC0
:1006C000013518407AE7FF2F8CD080234146DB04A8
:1006D000194388469FE743460C00F71AE3E6424673
:1006E000002A00D075E7002E00D07AE78023DB03D4
:1006F00000249C46FF22F2E63000404401254301DD
:1007000000D45BE7022518E743460125981BC5E6A0
:10071000202344464046D4409A1A9040431E9841B4
:100720002043A4E70D004DE7202341464046D14039
:100730009A1A9040431E9841084370E74246002AA7
:1007400000D14FE7002E00D14DE78022D2031342A3
:1007500000D148E7104200D045E7030043E7002EF0
:1007600090D00C0084460022B9E643460C00F01AF3
:10077000013593E684460022B1E6002800D01DE74B
:10078000002300249C46AAE6FFFFFFFBFFFFFF7D3E
:10079000F0B54F464646D64644024500C0B5640A09
:1007A0000F1C2D0EC60F002D00D18DE0FF2D00D1A6
:1007B00092E00023802099469A46E400C004044356
:1007C0007F3D7802430A98467B001B0EFF0F002BEB
:1007D00000D170E0FF2B00D186E04246D00080229D
:1007E0007F3BED180023D204024390469C46310023
:1007F0004B467940681C0F2B1CD8764A9B00D35877
:100800009F4639004446E2465346022B0FD0032B45
:1008100000D1D7E0012B37D100200024C0052043B0
:10082000C9070843E0BCBA46B146A846F0BDFF2060
:100830000024F3E7260C2404220C44462404240C50
:10084000434627001B0C574374435A435E43121917
:100850003B0C9B189C4203D980225202944666446A
:100860003F041A043F0CD2199401671EBC411B0CB3
:10087000920E9B1914439B011C431B0100D49BE067
:10088000012362081C40144302007F32002A64DD09
:10089000630704D00F232340042B00D0043423012A
:1008A00003D502004C4B80321C40FE2ABFDCA40161
:1008B000640AD0B2B2E74346002B3DD14A46013329
:1008C0001A4391469C4692E7002C29D1042399466D
:1008D000033B00259A4674E7002C1BD10823994658
:1008E000063BFF259A466CE74346FF35002B0BD1AC
:1008F00002234A461A4391469C4678E75346310004
:10090000022B00D083E792E703234A461A4391461D
:100910009C466CE70C239946093BFF259A4650E715
:10092000200001F0CFF97625431F9C4000236D4243
:1009300099469A462D1A44E7404601F0C3F94246CB
:10094000431F9A4000232D1A90469C46763D4EE761
:1009500080240021FF20E40360E701239B1A1B2B66
:1009600000DD59E722009E30DA4084401300621E09
:1009700094411C43630704D00F232340042B00D071
:10098000043463011AD50120002447E78020C00306
:10099000044209D04346034206D14446044364025C
:1009A0003900FF20640A39E78020C0030443640251
:1009B0003100FF20640A31E7280065E7A401002028
:1009C000640A2BE78020C00304436402FF20640A0A
:1009D00024E7C04660650008FFFFFFF741024200C0
:1009E000C30F490A0020120E7E2A03DD9D2A02DD74
:1009F000094A98187047802000040143952A07DCB3
:100A00009620821AD1404842002BF3D10800F1E72A
:100A1000963A9140F7E7C046FFFFFF7FF8B5002800
:100A200013D0C317C6185E40C40F300001F04AF956
:100A30009E2305001B1A962B0FDC082801DD083DBC
:100A4000AE407602760AD8B202E0002400200026EA
:100A5000C0053043E4072043F8BD992B0CDD052287
:100A60003100121AD1400A00010030001B318840C9
:100A7000411E884102431600052D12DC31000D4F46
:100A80003940720709D00F203040042805D00431C6
:100A90004A0102D59F2339405B1B89014E0AD8B217
:100AA000D6E76A1F96403100024F39407207F4D0F2
:100AB000E9E7C046FFFFFFFBF0B54F464646D64686
:100AC0000D000400C0B51F0011002803620F400A8A
:100AD00010437A00520DE3003C039146640AFA0F7A
:100AE0004F0F6E0027439246B846760DED0FC900B2
:100AF000954200D199E04C46341BA446002C00DC02
:100B00007CE04A46002A00D1B8E0C54A964200D1AE
:100B10001CE180223C0012041443A0466246382A9D
:100B200000DD61E11F2A00DDCCE164462022121BBA
:100B3000444694400F00A14664469140E7404C462D
:100B40004A1E91413C43424621436446E240801A9A
:100B50005C1AA3429B415F42C71B3B0200D4D0E01A
:100B60007F027F0A002F00D1FFE0380001F0AAF8D1
:100B700001000839202322005B1A8F40DA408C40A4
:100B80001743B14200DAFFE0891B4B1C1F2B00DD2D
:100B9000A8E020223900D21A200094409140D84089
:100BA000621E9441DF40002601430C43630709D0D5
:100BB0000F232340042B05D0231DA342A4416442EC
:100BC0003F191C003B0200D49EE0954B01369E422B
:100BD00000D1B7E0934AE40817407B0771057F0214
:100BE00023433F0B4A0D12053A43ED072A431800F1
:100BF0001100E0BCBA46B146A846F0BD002C4BD06F
:100C00004C46A41BA446002E00D023E104001C4344
:100C100000D1AFE16246541E012A00D115E2804D99
:100C2000AC4500D1C8E1A4461BE14A46B21A94463D
:100C3000002A00DCACE04A46002A43D0784A9642BB
:100C400000D1AFE180223C0012041443A04662466A
:100C5000382A67DC1F2A00DC5FE14746203AD7408C
:100C60006246202A05D064464022121B4446944026
:100C700021434A1E91410C003C4357E03A000A438D
:100C800000D105E12200013A012C00D182E1644C3F
:100C9000A4455BD0944641E7634C771C274200D0C3
:100CA000C4E004001C43002E00D069E1002C00D1F8
:100CB000BFE144460C4300D0D0E14207DB081343B8
:100CC000C00829E03A000A4300D170E16246644658
:100CD000013A012C00D1E0E0514CA44500D161E182
:100CE0009446B4E73A001F39CA401100202B03D0C4
:100CF0004022D31A9F403C43631E9C41002700269C
:100D00000C43630700D053E7B446E4087B07234352
:100D1000F808434A94451DD06246070352053F0B2D
:100D2000520D60E744460C43621E9441E4189C4215
:100D30009B415F423F183B02E3D5394B01369E424F
:100D400000D0B5E03200002700234CE74207DB0863
:100D50001343C0081A00024300D1E1E180273F039A
:100D600007433F032E4A3F0B3DE7200000F0AAFF58
:100D7000010018311F2900DCFCE6083884402700F8
:100D80000024B14200DBFFE6264A761A17400DE741
:100D9000002A2FD04A46921B9446002E00D1ADE087
:100DA0001F4A914500D10FE1802212041043624690
:100DB000382A00DD0FE11F2A00DD80E16446202291
:100DC0001E00121B6746040093409440FE405A1ECA
:100DD0009341F84034431C43804464188C42BF4123
:100DE0007F424E464744A6E742460A4311004A1E48
:100DF0009141ADE60C4C721C224200D0A1E00200F1
:100E00001A43002E00D0FAE0002A00D145E13A0052
:100E10000A4300D046E14207DB081343C0087BE7E2
:100E2000FF070000FFFF7FFFFE07000047465C1A38
:100E3000C21BA342BF417F42B94617004A46BF1AB0
:100E40003A0200D58DE023003B4300D08AE6002023
:100E5000002561E7B44CA14500D1ADE08024240415
:100E600020436446382C3DDC62461F2C00DDB7E091
:100E700020251E002D1B0400AB40AC40D640D040C6
:100E800042465D1EAB413443121A904623432CE088
:100E90004207DB081343C0083BE75C189C429B41B8
:100EA00040445B42C71801263B0200D429E70226D2
:100EB0009E4A63081740012214401C43FB071C4351
:100EC0007F0873E64446203AD4406246202A05D083
:100ED00067464022D21B4746974039434A1E9141FC
:100EE000214335E60343581E8341CC1AA142BF413A
:100EF00043467F4255464E46DF1B2EE602001A430C
:100F000000D1BDE062466446013A012C00D1E5E023
:100F1000854CA44558D0944649E764462022121BCC
:100F2000444694400F00A14664469140E7404C4639
:100F30004A1E91413C4342460C436146CA408018D8
:100F4000F4E6794CA24200D1FDE6591899429B4142
:100F500040445F42C719FC07490816000C437F084C
:100F6000CFE6CC1AA142BF4143467F42181A5546EC
:100F7000C71BF7E5C9087B0755460B43F808C8E6C9
:100F8000002C00D081E043460B4315D18020002582
:100F90000003E3E65C1AA3429B41C71B5B420126A8
:100FA000FF1ADAE54207DB081343C008D2E642071E
:100FB000DB081343C008ACE643464246C9085B075A
:100FC00055460B43D008C5E6434642465B07C90871
:100FD0000B43D008BEE603431C00631E9C41FCE6A5
:100FE0000200203CE24014006246202A03D0402543
:100FF000AD1AA8400343581E8341234375E7002AD6
:10100000E2D03A000A43CDD04207DB0813438022E6
:10101000C0081203104206D0FC08144203D120007D
:10102000CB087A0713435A0FDB005207DB08134340
:1010300090E643460B4300D109E743464246C908C0
:101040005B0755460B43D00866E6CC1AA14289419E
:101050003F1A4942554601267F1A7EE542465C1AF0
:10106000871AA34292415242BF1A3A023DD5CC1A86
:10107000A1428941434649421F1A55467F1A95E5C8
:101080007B07C9080B43F80843E64446DB080C43DA
:1010900030D142071343C0085CE67B07C9080B4305
:1010A000F80839E65C189C429B4140445B42C718F3
:1010B0003B0200D425E61D4B01261F4021E604001B
:1010C000203AD4406246202A04D040226646921B31
:1010D000904003435A1E93411C437EE65C188C42A9
:1010E0008941404449424718DDE623003B4300D193
:1010F000ADE606E6440723438024C00824032042CB
:1011000008D04246D608264204D155463000CB08C6
:1011100051070B435A0FDB00DB085207134319E654
:101120000023014A1F005EE5FF070000FFFF7FFF6D
:10113000F0B557464E464546DE46E0B581460500C9
:101140000C03480092461F0085B0240B400DCE0FC3
:10115000002800D156E1D44B984200D172E16B0FC8
:10116000E4001C4380231B0423439846CF4BED002F
:101170009B4600239946834400933C037B005046E2
:10118000240B5B0DFF0F002B00D11FE1C64A9342D9
:1011900000D162E1C549420F8C46E4005946144330
:1011A000802263441204CB1A14439B46C2000020E1
:1011B00033007B409A464B460F2B27D8BC499B00F7
:1011C000CB589F46B246009B022B16D0032B00D172
:1011D0008EE2012B00D0D9E00023002400255246E6
:1011E0001B052343D20713432800190005B0F0BCA8
:1011F000BB46B246A946A046F0BD00240025AA4B36
:10120000EDE7BA46A04615000090DCE7444500D261
:10121000C7E100D1C2E101235B429C462E0040465B
:101220000025E3442302140E1C431B0C994623049F
:101230001F0C1202494600920197FEF7EBFF0200D5
:101240007A430B04310C804619438A4207D90123A3
:101250005B429C460919E0448C4200D807E2881A98
:101260004946FEF7D7FF09048C4631046646019AC9
:10127000090C4243030031438A4204D90919013B56
:101280008C4200D8EDE1881A424612041A43904677
:101290004146009B0E041B0C1F000293009B360C62
:1012A0001B04190C0B007343120C7E430391514332
:1012B0007A431F0CBC4676186644B14203D980219C
:1012C00049028C466244310C8A1831041E04360CE3
:1012D0008E19904202D312D1B54210D24346591E04
:1012E000009B9C4665441F009D429B415B421B192D
:1012F000C018844200D2A0E100D19BE18846AE1B19
:10130000B542AD41801A6D42401B844200D1D5E107
:101310004946FEF77FFF019A0B044243310C05005A
:1013200019438A4200D96CE1881A4946FEF772FFD8
:10133000019A360442430904360C03000E43B242BC
:1013400000D953E10398B61A02002D041D43029FF1
:101350002B041B0C5A437B439C46290C4843130C1B
:10136000844463447943984203D9802040028446F0
:101370006144180C12041B04120C41189B188E4275
:1013800000D2FFE000D1FAE001231D43494A5A444C
:10139000002A00DCAAE06B0700D03DE1ED084346DF
:1013A000DB0106D54246444B1A4090468022D200CB
:1013B0005A44424B9A4200DD1FE743465B071D43F8
:1013C000434652055C02240B530D08E75246224364
:1013D00000D17BE0002C00D1FAE0200000F072FC8C
:1013E00002000B3A1D2301009B1A52460839DA40CD
:1013F0008C40144352468A40314B58449B468344A8
:101400000020D5E64B462343984644D0002C00D11B
:10141000CEE0200000F056FC010002000B391D2335
:101420005B1A49461000D940083884400B004D46ED
:101430002343984685402348831A9B4600239946B8
:1014400000939AE64B46234398461DD108239946BC
:10145000063B0025834600938FE65246224309D17E
:10146000022349461943184B89469C460024022012
:10147000E3449DE603234A461A43134B91469C4698
:1014800052460320E34493E60C239946093BA046C9
:101490008346009371E60423994600239B4601335B
:1014A0000025009369E6C046FF07000001FCFFFF2E
:1014B000A0650008FF030000FFFFFFFEFE0700001D
:1014C000F30300000DFCFFFF01F8FFFF4946012375
:1014D00019438946002401206AE6002380249A46A5
:1014E00000258A4B24037AE601256D4201239B1ACD
:1014F000382B00DD70E61F2B00DCBFE01F214942C6
:101500008A1A4146D1400A00202B04D04146804B24
:101510005B4499400D436B1E9D4107232A431D00E8
:1015200000241540134200D1D4E00F2100231140C4
:10153000042900D1CBE0111D9142924152429B18E7
:101540000A00190200D4C2E001230024002546E667
:10155000802341461B03194208D01C4206D11C437C
:101560002403BA461500694B240B38E68024434611
:1015700024031C432403B246644B240B2FE6002BA8
:1015800000D103E7A619681EA64200D28DE08E4264
:1015900000D2A3E000D1B3E00500F5E6AA4200D9ED
:1015A00039E64346DE0758086B081E43ED0739E667
:1015B000484600F087FB01000200153120321C294B
:1015C00000DC2CE74B46083883400025984632E77C
:1015D00000F078FB03001A00153220301C2A00DCD2
:1015E00000E75446083B00229C4005E73619013BC2
:1015F000B44200D9A6E6B24200D8A3E6831E36194B
:10160000A0E60919013D8C4200D98DE68A4200D836
:101610008AE6851E091987E60F232B40042B00D18B
:10162000BCE605235B42AB429B4104355B42ED08BF
:101630009844B4E6AF4200D960E6824204D800D0B4
:101640005CE6AE4200D859E602235B429C46009B12
:10165000E0449C4665449D429B415B421B19C01877
:101660004DE68A4200D80EE6831E09190BE68A422F
:1016700000D8F4E5831E98460919F0E525492800AD
:1016800059448D4042468A40691E8D414146D840AA
:10169000D94002432A430B00510700D151E70F21E3
:1016A0001140042900D046E74BE705008E4200D0E8
:1016B0006AE6009A934200D066E667E6164A5A4404
:1016C000002A00DC10E701230025984467E65D0747
:1016D0005B021C0BD2080023154380E50098023DF5
:1016E00042008242BF417F423C1936190092DDE739
:1016F0008024434624031C432403044B240B6EE53F
:10170000009A9A42EAD30500D3E7C046FF070000DB
:101710003E0400001E040000FF030000F0B5574621
:101720004E464546DE46E0B598460C034B000600A3
:10173000924687B0240B5B0DCF0F002B00D15EE1EA
:10174000DA4A934200D177E1420FE4001443802249
:1017500012041443D64AC500944663440093002300
:1017600099469B46434642461E03D20F5B005046B5
:101770009046360B5B0D00D122E1CC4A934200D15A
:1017800064E1CB49420F8C4600996344F6008C46D5
:10179000164380229C44120463461643C200002074
:1017A00000930099434601318C4649467B400193A2
:1017B0000F2926D8BF4B890059588F4643460193BD
:1017C0003400150083465B46022B16D0032B00D154
:1017D00005E2012B00D0CFE0002200240025019B70
:1017E00012052243DB071A432800110007B0F0BCA2
:1017F000BB46B246A946A046F0BD00240025AB4A30
:10180000EDE7280C2D042D0C2B00110C1204120CEA
:101810005343984613002F00434399464F434F4488
:10182000BB4647460B003F0CBA465F46434357440E
:101830000293B94506D99A4680235B029946CA4469
:10184000534602933B0C9B4643461B043F041B0C30
:1018500098463B0043440493330C3604360C9846B8
:10186000330043439946434643432F009A46434639
:1018700077435D43380C4D444519A94503D980236E
:101880005B029946CA443F04280C3F0C2D04ED1915
:10189000270C2404240C0300200050437A43914673
:1018A0003A0053440593030C9A464A436143494422
:1018B0005144AB44894503D980235B0299464A448D
:1018C00000040B0C000C090409182000994643463B
:1018D00070435C437E435F43030C9846A419444421
:1018E0004A440397A64204D980235B0298464744A2
:1018F0000397029B00045B441E00AB42AD412304EE
:101900009A46059B761898468E428941000C5044B1
:1019100040446D424719B846934649428946C344FC
:10192000D94498428041A845AD41934592418945AB
:1019300089416D4240422843240C524249420A43A5
:10194000039B00198018C7184B46DC0D049B7502D9
:101950001D436A1E95414B46F60D7F0235435A02E0
:101960003C431543FB0100D41CE101216A080D40F2
:101970001543E207154364084F496144002900DC20
:10198000B0E06B0709D00F222A40042A05D02A1D97
:10199000AA42AD416D4264191500E30104D58021CE
:1019A000464AC90014406144454A914200DD24E79B
:1019B0006207ED08640249051543240B4A0D0EE742
:1019C0005246324300D17FE0002E00D1DCE03000EF
:1019D00000F078F902000B3A1D2301009B1A5246D1
:1019E0000839DA408E40164352468A40009B3549FA
:1019F000181A03008C46634400200093D1E62500AA
:101A000005434AD0002C00D1B0E0200000F05AF984
:101A1000010002000B391D2310005B1A3100350054
:101A200008388440D94085400C432648831A0093E7
:101A3000002399469B4695E60500254326D10822BA
:101A400000930223002491469B468BE65246009B5E
:101A5000324310D1154900268C4663444946009311
:101A600002231943894602209BE65B460197022B1D
:101A700000D0ABE6C1E60D4A0320944663444A46D3
:101A8000009303231A43914652468AE60C220093A0
:101A90000323050091469B4664E6042399460023F0
:101AA0000093013300249B465CE6C046FF0700001C
:101AB00001FCFFFFE0650008FF030000FFFFFFFEE1
:101AC000FE0700000DFCFFFF49460123194389462C
:101AD0000026012065E6002380240025434A019367
:101AE00024037CE60120401A382800DD74E61F2814
:101AF0005BDD1F2223005242511ACB4019002028DF
:101B000003D03B4A6244944025436A1E95412A0013
:101B10000A4307210D000024154011425BD00F211C
:101B200000241140042953D0111D91429241524288
:101B3000A4180A0023024BD50122002400254EE6FA
:101B400080231B031C4209D01E4207D133431C03D0
:101B500043461500240B254A019340E680221203D8
:101B600014432403214A240B019738E600F0AAF815
:101B700001000200153120321C2900DC4BE7340043
:101B800008380025844050E700F09CF803001A0054
:101B9000153220301C2A00DC1EE75646083B002286
:101BA0009E4023E7009B9C46E6E6124922006144E2
:101BB0002E008D408A40C640691E8D4132432A4323
:101BC000C4405307B6D00F2111400429ACD1B1E76E
:101BD00065076402240BD20815430022FFE580222A
:101BE000120314432403014A240BF8E5FF07000005
:101BF0003E0400001E0400000A0030B5134C5300E0
:101C000009030500090B00205B0DD20FA34204DD80
:101C10000F48834202DD0F4BD01830BD80204003B7
:101C200001430D48C01A1F2808DD0C48C31AD940CB
:101C30000B005842002AF0D11800EEE7084CC540CE
:101C4000A446634499400B002B43F2E7FE030000D7
:101C50001D040000FFFFFF7F330400001304000099
:101C6000EDFBFFFF70B5002816D0C317C5185D4007
:101C7000C40F280000F026F8114A121A0A2816DCB0
:101C800003002E0015339E400B23181AC540520541
:101C90002D032D0B530D03E0002400230025002607
:101CA0001B052B43E40723433000190070BD0B389C
:101CB000854052052D0300262D0B530DF0E7C0463D
:101CC0001E0400001C2101231B04984201D3000CB8
:101CD00010391B0A984201D3000A08391B0998429F
:101CE00001D30009043902A2105C40187047C046B5
:101CF00004030202010101010000000000000000D5
:101D000010B5002903D1FFF7DDFF203002E0080005
:101D1000FFF7D8FF10BDC04600B589B008220021EA
:101D200006A804F03BFB1422002101A804F036FBB6
:101D30002A482B4B03600023C3638022D2054260F4
:101D4000836007228263063A0261C3602021425405
:101D5000013143548362C221FF3141629639FF3918
:101D6000425403324261036383614363C36101F000
:101D70003BFC002825D10123069380235B010793B8
:101D800006A9164801F050FE00281DD1154B0693F8
:101D900006A9124801F048FE002818D101A9C02365
:101DA0001B04019301234B600B720F4BCB609B23F1
:101DB0001B010B61094801F0A7FE00280AD109B0F8
:101DC00000BD00F0CBFDD6E700F0C8FDDEE700F077
:101DD000C5FDE3E700F0C2FDF1E7C0466004002066
:101DE0000024014002000004FF0F000010B586B07F
:101DF00004001422002101A804F0D0FA1F4B22682D
:101E00009A4201D006B010BD1D4B596B8022920042
:101E10000A435A63D96A01221143D962DB6A1A4024
:101E20000092009B032301930293A02001A9C00507
:101E300001F0C0FF1348144B03600023436083602C
:101E4000C36080220261803242618022D2008261BE
:101E50002022C261036201F003FF00280BD1094B6D
:101E6000E3649C62002201210C2001F0A1FE0C2001
:101E700001F0CEFEC6E700F071FDF0E7002401405E
:101E800000100240BC0400200800024010B582B0DF
:101E90000C4C200001F0CEFC08220021684604F022
:101EA0007DFA0123009380235B01019369462000A2
:101EB00001F0BAFD002801D102B010BD00F04EFDC6
:101EC000FAE7C0466004002010B582B00C4C200038
:101ED00001F0B0FC08220021684604F05FFA094BCB
:101EE000009380235B0101936946200001F09CFD73
:101EF000002801D102B010BD00F030FDFAE7C04665
:101F0000600400200200000400B583B0094A116B90
:101F1000012319431163126B13400193019B0022AB
:101F20000021092001F044FE092001F071FE03B0F8
:101F300000BDC0460010024070B582B00C00150014
:101F4000002818DB424B1B88984214DA002912DB68
:101F5000404B1B8899420EDA3F4B1B78022B49D02D
:101F600010D8002B15D0012B15D10823FF335B1A95
:101F7000040018B20FE022000100384800F0E4FD30
:101F800002B070BD032B06D1AF231B1A08001CB290
:101F900001E0083424B20823FF331B1AB020584351
:101FA0002018C00886B22E4B1B78002B2AD12D4B4F
:101FB0001B680004000C18182B4B5B5D01221100FC
:101FC00019401A4203D0294B1B78002B05D1002958
:101FD00024D1264B1B78002B20D1E217520FA418D6
:101FE00007231C40A41A1C1B0122A2400378934320
:101FF00003701FE00823FF33181A00B2B7210C1B2F
:1020000024B2C8E71A4B1888301880B2032100F0B8
:10201000C9FE03006A46D01D0370CDE7E217520FD8
:10202000A41807231C40A41A1C1B0122A2400378F9
:10203000134303700A4B1B78002BA1D001780C4B83
:102040001888301880B2022200F0B8FE98E7C04627
:10205000160500200C050020000000202066000866
:102060000100002004050020100500200A050020C2
:1020700008050020024B1880024B19807047C046AB
:10208000180500201A050020F0B5DE4657464E46DA
:102090004546E0B583B00F0016001C000CAB1B8852
:1020A0009B46631ADA179B1853409846331ADA177F
:1020B0009B1853409946984504DC230034001E00C9
:1020C00007000800A74205DC3300060018002300C3
:1020D0003C001F003D1BABB200932DB2831BDA17EF
:1020E0009B1853409A46EB0F5D196D10864223DB17
:1020F00001235B4201930CE05A4631002000FFF7B8
:102100001BFF5346EB1A9AB21DB21B040BD40134C9
:1021100024B2BC4213DCC845EEDD5A462100300033
:10212000FFF70AFFEDE7019B9C46664436B2009B31
:102130009C46624415B2EAE701230193E9E703B044
:10214000F0BCBB46B246A946A046F0BD10B582B071
:102150001C008A1892B2013A13B200940200FFF7F1
:1021600093FF02B010BDF0B5D6464F464646C0B507
:10217000060089461700984608AB1B889A4604005B
:1021800007E05346424649462000FFF7DFFF01348F
:1021900024B2F519AC42F4DBE0BCBA46B146A8461D
:1021A000F0BD0000F0B5DE4657464E464546E0B568
:1021B00087B0824603910592994610AB1B889B46D7
:1021C00011AB1E7812AB1F784A4B1B88984211DA6C
:1021D000494B1B8899420DDA73009B195B005344ED
:1021E000002B07DDFB008C466344002B02DD00233F
:1021F000984657E0414800F077FC07B0F0BCBB467A
:10220000B246A946A046F0BD404670435044210066
:102210007943039B9C4661443BB2049332B209B2BA
:1022200000B24B460093049BFFF79DFF013464B25C
:102230006D08072C32DCEB070DD5012EE4D1012F00
:10224000E2D140465044039BE11809B200B24A462D
:10225000FFF772FEEAE7CB45E8D0012E01D1012F4E
:1022600012D040467043504421007943039B9C4662
:1022700061443BB2049332B209B200B25B460093B0
:10228000049BFFF770FFD1E740465044039BE118E1
:1022900009B200B25A46FFF74FFEC7E74346013383
:1022A0005BB298464346042B08DC059A930094469B
:1022B00063444344124AD55C0024BAE7CB459CD022
:1022C000012E01D1012F0BD0B00030185044FB007B
:1022D00032B200B2594600910399FFF744FF8CE7F0
:1022E0005046053000B25B4608220399FFF72EFFE7
:1022F00083E7C046160500200C0500203C66000858
:102300004C66000870B584B002000A2846D00D283B
:1023100042D0284B1B78002B17D0274B19784B0045
:102320005B185B0025490020095ECB182449098809
:102330008B420ADD234B1978204B19802249234B0D
:102340001B78DB0008881B180B80204B1D78E900E8
:102350001D4B00201B5E5B181D4909888B4203DD65
:102360001C4B1978184B19801B4B1B8816490020F1
:10237000095E124C0026A05F02950F4D2E78019643
:10238000164E36880096FFF70DFF2B785A009B18E3
:102390005B0022889B18238004B070BD094B1A781B
:1023A000064B1A80084A094B1B78DB0011885B1822
:1023B0001380F1E72005002004000020180500200C
:1023C000160500201C0500201A050020050000202D
:1023D0000C0500201D050020020000201E05002025
:1023E00010B5040002E00134FFF78CFF20780028CC
:1023F000F9D110BD10B5FFF785FF10BD10B5FFF77F
:10240000EFFF10BDF0B589B005000E00002801D027
:10241000002411E03020FFF7EDFF09B0F0BD3100DE
:102420002800FDF7F7FE671C6B46195531002800A0
:10243000FDF76AFE05003C00002DF0D103E03730C7
:10244000C0B2FFF7D7FF002CE7D0013C6B46185D08
:102450000928F4D83030C0B2F3E70000F0B5CE461A
:10246000474680B589B01422002103A803F096FFE7
:10247000334BDA6A01242243DA62DA6A224000929C
:10248000009AD96A02221143D962D96A0A4001929C
:10249000019ADA6A04252A43DA62DB6A2B40029346
:1024A000029B284B994600228021180001F04CFD28
:1024B0008021A023DB05984600228900180001F046
:1024C00043FD214E0022B021300001F03DFD039577
:1024D0001E4B04930025059503A9300001F06AFC0A
:1024E0008027039704940595069403A9484601F0B4
:1024F00061FCF0239B0103930495059503A94046D5
:1025000001F058FC3023039304940595069503A924
:10251000300001F04FFC039704940595069403A93D
:10252000300001F047FC00220121062001F040FBB1
:10253000062001F06DFB09B0C0BCB946B046F0BD45
:10254000001002400008005000040050000021105C
:1025500070B50C000B68C01A4D68FEF75FFA291CB5
:10256000FEF716F9051CA068FEF758FA291CFDF7BE
:1025700071FFFEF733FA70BDF0B5CE46474680B521
:1025800087B08046894604AB01221A700121494276
:1025900002910192009301232032BF31294801F0BA
:1025A000A9FE002400E00134022C0EDC01235B4272
:1025B00002930233019304AD00952722BE212148E6
:1025C00001F068FF2B78DB07EDD51E4D0126764222
:1025D00002960127019704AC11236B440093012359
:1025E0002A22BE21280001F055FF029601971223EE
:1025F0006B44009301232B22BE21280001F04AFFE7
:102600006078A3781B021BB218434946FFF7A0FF6E
:102610004346462B04D007B0C0BCB946B046F0BD17
:10262000FFF720FB0022084BFFF778F80022074B4A
:10263000FEF77EFD0022064BFEF73EFAFFF7DCFABE
:10264000E9E7C046240500200000224000001440B5
:102650000000404070B50C00CB68C01A0D69FEF751
:10266000DDF9291CFEF794F8051C6069FEF7D6F920
:10267000291CFDF7EFFEFEF7B1F970BD10B586B06D
:10268000040001235B4202930233019305AB0093E4
:1026900001232122BE213F4801F0FCFE002862D127
:1026A00005AB1A7801210A431A70012252420292A4
:1026B00002320192009301232032BE21354801F0FD
:1026C00019FE002852D101235B4202930233019389
:1026D00005AB009301232122BE212E4801F0DAFE32
:1026E000002846D105AB1B78DB07ECD401235B4205
:1026F00002930233019305AB009301232722BE21ED
:10270000244801F0C7FE002837D105AB1B789B0792
:1027100036D501235B4202930233019314336B4499
:10272000009301232822BE211A4801F0B3FE00289D
:1027300029D101235B4202930233019315336B4489
:10274000009301232922BE21124801F0A3FE002894
:102750001CD105AB5A789B781B0218B2104321009C
:10276000FFF778FF07E00120404204E001204042EB
:1027700001E00120404206B010BD01204042FAE7CE
:1027800001204042F7E701204042F4E701204042A7
:10279000F1E7C0462405002010B51448144B03602F
:1027A000144B4360002383600122C26003614361D4
:1027B0008361C361036201F037FD00280CD1002161
:1027C0000A4801F03BFF002809D10021074801F029
:1027D00061FF002806D110BD00F0C0F8EFE700F05F
:1027E000BDF8F2E700F0BAF8F5E7C046240500208E
:1027F00000540040BB7C700010B586B00400142269
:10280000002101A803F0CAFD2268114B9A4201D0B1
:1028100006B010BD0F4CE26A02231A43E262E26A7C
:1028200013400093009BC0239B000193122302934B
:10283000113B0393023304930133059301A9064826
:1028400001F0B8FAA26B80239B031343A363DFE775
:1028500000540040001002400004005010B5002257
:102860000121112001F0A4F9112001F0D1F9002279
:1028700000210F2001F09CF90F2001F0C9F910BDD3
:1028800070B50400294800F02FF9FA20400000F04C
:10289000DDFD01214942200000F0EEFF200001F0A3
:1028A0004DF80100224800F04FF9200000F0C2FF6F
:1028B00023681D6A2D0C2D052D0D1E6A1D4B9D4292
:1028C0001BD01D4800F010F923681C4A1A622268C8
:1028D000136A1D4315621A4D00222021280001F0C1
:1028E00033FB01221021280001F02EFB154800F0D7
:1028F000EDF8200000F06EFF70BD134800F0F4F812
:10290000236836040D4A16401E622268136A1B0CA7
:102910001B0413620A4D01222021280001F014FB40
:1029200000221021280001F00FFBDFE74C6B0008AC
:102930006C6B0008FF0F0000806B00080000FF0FA9
:1029400000040050786C00089C6B000810B5024829
:1029500000F0FAF810BDC046BC6B000872B6FEE786
:1029600000B59DB0382200210EA803F017FD1422F7
:10297000002109A803F012FD24220021684603F07B
:102980000DFD1E490B681E4A1A4080231B0113438C
:102990000B6002230E93012211920F3212921893B0
:1029A000002319938023DB021A938023DB031B93FC
:1029B0000EA801F0F1FE002819D10F2309930C3B5A
:1029C0000A9300230B930C930D93012109A802F0A5
:1029D000A7F900280DD10A2300930023049306933E
:1029E000684602F0AFFA002805D11DB000BDFFF720
:1029F000B5FFFFF7B3FFFFF7B1FFC046007000401F
:102A0000FFE7FFFF10B500F0FBFCFFF7A9FFFFF7A2
:102A100025FDFFF779FAFFF7BFFE00F0EFFB00F0AE
:102A2000A5FB00F0F3F8FFF777F900F061FBFFF783
:102A300015FF00F035F8034800F056F8024803F09F
:102A400015F8FEE7D86B000810060020F8B5040062
:102A50000F000B4D31230022EA543135390020009C
:102A6000FDF7D8FB013D074B5B5C2B70260039005E
:102A70002000FDF749FB0400B742EFD92800F8BD5C
:102A800080050020506C000810B50378002B04D09E
:102A90000130FFF7F9FF013010BD0020FCE7000016
:102AA00000B583B0074B1A6800929A8869468A80FD
:102AB0009B798B7101235B420722034803F05CFB87
:102AC00003B000BDE86B00089006002010B50400BC
:102AD000FFF7DAFF012382B25B422100014803F0D5
:102AE0004BFB10BD9006002070B582B00400FFF7CC
:102AF000CBFF0126764282B2094D33002100280027
:102B000003F03AFB074B1A8869468A809B788B71E1
:102B10003300022201A9280003F02EFB02B070BD91
:102B200090060020F06B000800B583B06B46D91DFD
:102B3000087001235B420122024803F01DFB03B031
:102B400000BDC046900600200FB430B583B006AB80
:102B500010CB01931FE0FFF7E7FF01342078252811
:102B600007D0002805D00A28F5D12548FFF7AEFF89
:102B7000F3E7002812D06378633BDAB2152A09D84C
:102B80009300204AD3589F46019B1A1D0192187842
:102B9000FFF7CAFF02342378002BDFD103B030BC2B
:102BA00008BC04B01847019B1A1D01921D68002D36
:102BB00006DB0A212800FFF749FFFFF787FFE9E757
:102BC0006D421148FFF782FFF3E7019B1A1D019246
:102BD00018680821FFF73AFFFFF778FFDAE7019B53
:102BE0001A1D01921868FFF771FFD3E7019B1A1DA8
:102BF000019218681021FFF729FFFFF767FFC9E767
:102C0000F06B0008F86B0008F46B000810B50E4874
:102C10000E4B036082235B00436000238360C3602C
:102C200003614361802292008261C3610362436257
:102C300083620733C36202F07BFB002800D110BD22
:102C4000FFF78CFEFBE7C046B405002000300140D2
:102C500010B586B004001422002101A803F09EFBE9
:102C600022680F4B9A4201D006B010BD0D4B596B34
:102C7000802252010A435A63D96A01221143D96260
:102C8000DB6A13400093009BE0230193DE3B029339
:102C90000492A02001A9C00501F08CF8E4E7C04629
:102CA000003001400010024010B58021A020012218
:102CB0008900C00501F048F910BD10B58021A020A1
:102CC00000228900C00501F03FF910BDF0B583B0C6
:102CD00004000E0015001F00FFF7EFFF01AB1F708F
:102CE000220A5A709C700024022C22DC01AB1B5D6E
:102CF0006A46D11C0B7001235B4201220E4802F090
:102D00007DFB022F15D10134EEE7335D6A46D11CFD
:102D10000B7001235B420122074802F06FFB013474
:102D2000A542F2DCFFF7C0FF642000F08FFB03B088
:102D3000F0BD0024F4E7C046B4050020F0B583B030
:102D400005000C0017001E00FFF7B7FF01AB1E7057
:102D50002A0A5A709D700025022D1EDC01AB5B5DB6
:102D60006A46D11C0B7001235B4201220C4802F021
:102D700045FB032E11D10135EEE7661C01235B42B2
:102D800001222100064802F027FD01353400AF4240
:102D9000F3DCFFF789FF03B0F0BD0025F7E7C0467D
:102DA000B405002010B582B00B006A46D41D012284
:102DB0002100FFF7C3FF207802B010BD10B582B02C
:102DC0000C0013006A46D11D0C700122FFF77EFF34
:102DD00002B010BD054B5A6B01210A435A63996B2F
:102DE000802252050A439A637047C0460010024091
:102DF000FEE7FEE77047704710B500F015FB10BD09
:102E000010B5042001F0A8F82848FFF79DFE00F057
:102E10006BFA274B01221A602648FFF795FE022124
:102E20000220FFF727F92448FFF7E8FA00F080FABC
:102E300004002248FFF7E2FA0A212000FFF7E2FA35
:102E40001F48FFF7DBFA1F4B19684320FFF794FB7D
:102E500004001D4B984221D01C48FFF7CFFA0A21ED
:102E60002000FFF7CFFA1A48FFF7C8FA154B186889
:102E7000FFF704FC0400431C14D01648FFF7BEFA09
:102E80000A212000FFF7BEFA1348FFF7B7FA1348EC
:102E9000FFF75AFE1248FFF757FE10BD1148FFF723
:102EA000ADFAE3E71048FFF7A9FAF0E7646C000811
:102EB0007C0500207C6C0008946C0008BC6C000849
:102EC000786C00087805002034FEFFFFE06C0008F5
:102ED000E86C0008006D0008086D00080C6D000823
:102EE000246D0008CC6C0008F06C000810B5024896
:102EF00000F002FF10BDC046BC04002010B502481F
:102F000000F020FD10BDC0466004002010B5002474
:102F100006E0364B1A5D21003548FFF715FE0134F7
:102F2000032CF6DDA023DB051B695B053AD52F4A90
:102F300013785B0001210B431370A023DB051B6991
:102F40001B0534D5294A53785B0001210B4353708C
:102F5000A023DB051B69DB042ED5244A93785B0094
:102F600001210B439370A023DB051B699B0428D52B
:102F70001E4AD3785B0001210B43D3701D4802F039
:102F80001CFE1A4B1B78FF2B20D0184B5B78FF2BB5
:102F900020D0164B9B78FF2B20D0144BDB78FF2BD7
:102FA00020D010BD114A13785B081370C5E70F4A93
:102FB00053785B085370CBE70C4A93785B089370A7
:102FC000D1E70A4AD3785B08D370D7E70A48FFF7FE
:102FD0008BFDDAE70948FFF787FDDAE70848FFF7D6
:102FE00083FDDAE70748FFF77FFDDAE70C060020EC
:102FF0002C6D000810060020486D0008506D000878
:10300000586D0008606D0008F8B52C4802F0D5FD39
:1030100000F08EF9010002002948FFF795FD294BC9
:1030200019684320FFF7A8FA0100274B98423DD0CA
:103030002648FFF789FD234B1868FFF71FFB0100A7
:10304000431C37D025222248FFF77EFDFEF73CFFC8
:10305000FA277F00380000F0F9F91E4C200000F03C
:10306000B9FB012676423100200000F005FC1A4D24
:103070002B6859680904090C1848FFF765FD200002
:1030800000F0D8FBFEF702FF380000F0DFF9200067
:1030900000F0A0FB3100200000F0EEFB2B68196867
:1030A0000904090C0E48FFF74FFDF8BD0D48FFF766
:1030B0004BFDC0E70C48FFF747FDC7E7500600206F
:1030C000686D00087805002034FEFFFFA86D000839
:1030D000E86D00086004002070050020106E0008F4
:1030E000286E00088C6D0008CC6D00087047000049
:1030F00000B587B01022002102A803F04FF9082282
:103100000021684603F04AF916488023DB05036076
:10311000154B436000238360FA225200C2600361B2
:10312000436102F07FFC002813D180235B010293EE
:1031300002A90C4802F0CAFC00280DD1002300931C
:1031400001936946074802F0C9FD002807D107B07E
:1031500000BDFFF703FCE8E7FFF700FCEEE7FFF731
:10316000FDFBF4E710060020FF7C000000B583B0F3
:1031700008220021684603F011F91048104B036043
:1031800083231B014360002383600E4AC2604361B6
:1031900002F048FC00280AD10023009301936946FD
:1031A000064802F09BFD002804D103B000BDFFF7E4
:1031B000D5FBF1E7FFF7D2FBF7E7C046500600204A
:1031C000001000402F75000003688022D205934252
:1031D00003D0084A934206D07047074A936B0121F7
:1031E0000B439363F8E7044A936B10210B439363FB
:1031F000F2E7C046001000400010024010B50C4835
:103200000C4B036096239B01436000238360C360E3
:1032100003610C2242618361C3610362436203F074
:1032200065F8002800D110BDFFF798FBFBE7C0460A
:10323000900600200044004010B586B0040014221F
:10324000002101A803F0AAF82268104B9A4201D08D
:1032500006B010BD0E4B996B802292020A439A630E
:10326000D96A01221143D962DB6A1A400092009B9D
:103270000C2301930A3B029301330493013305931A
:10328000A02001A9C00500F095FDE1E70044004041
:103290000010024000B587B017236B44197002007C
:1032A000012149420291023101910093012325310C
:1032B000024801F01FF807B000BDC04624050020F9
:1032C00010B586B0020001235B42029302330193E2
:1032D00017246C4400942621024801F0DBF8207882
:1032E00006B010BD2405002010B58E20FFF7E8FFC2
:1032F00003239843C1B28E20FFF7CCFF10BD00001E
:1033000010B586B0020001235B42029303330193A0
:1033100005AC0094013B2621044801F0BBF823785A
:103320001B026078184306B010BDC046240500207B
:1033300010B58E20FFF7C4FF7F2101408E20FFF7DC
:10334000A9FF08218020FFF7A5FF8020FFF7B8FF25
:103350008306FAD58720FFF7D3FF10BD0D488546B9
:103360000D480E490E4A002302E0D458C4500433DD
:10337000C4188C42F9D30B4A0B4C002301E01360B4
:103380000432A242FBD3FFF7B1FE02F0E5FFFFF7E4
:1033900039FBFEE70020002000000020440400204C
:1033A000C46E0008440400201C070020FEE7000053
:1033B00010B504000F4B1978FA208000FCF7A4FE2A
:1033C00001000D4B1868FCF79FFE00F02DFC002853
:1033D0000DD1032C01D901200AE001300022210087
:1033E000404200F0E5FB054B1C60002000E001209E
:1033F00010BDC0460C000020080000201000002076
:1034000010B5084A136840210B4313600020FFF7F2
:10341000CFFF041E02D00124200010BDFFF7DAFC0C
:10342000FAE7C04600200240034A1168034B1B78AC
:103430005B1813607047C046140700200C00002082
:10344000014B18687047C0461407002070B504008F
:10345000FFF7F6FF0500631C02D0044B1B78E4184D
:10346000FFF7EEFF401BA042FAD370BD0C00002016
:1034700010B582B00400084B18680849FCF744FEF8
:103480004443019402E0019B013B0193019B002B0B
:10349000F9D102B010BDC0460800002040420F0024
:1034A00070B5040003689A68520721D59A685207DC
:1034B00006D59A68920703D49A6810210A439A6045
:1034C000FFF7BEFF050023689B685B070ED5FFF77B
:1034D000B7FF401B0A28F6D9636D102213436365BA
:1034E000A36D0F3A1343A365012002E0002000E022
:1034F000002070BD70B504000268916803230B4082
:10350000012B01D0002070BD1368DB072DD5916819
:1035100005230B40012B09D0436D10221343436553
:10352000836D0F3A134383650120ECE79368022112
:103530000B439360036803221A60FFF781FF0500C5
:1035400023689B68DB070ED5FFF77AFF401B0A282C
:10355000F6D9636D102213436365A36D0F3A1343CD
:10356000A3650120CFE70020CDE70020CBE70000D6
:1035700070B504000268916803230B40012B0DD045
:103580009168184B19420ED0636D10221343636586
:10359000A36D0F3A1343A365012070BD1368DB07C9
:1035A000EED50020F9E7936801210B4393600120D9
:1035B000FFF75EFFFFF744FF050023681B68DB078A
:1035C0000ED4FFF73DFF401B0A28F6D9636D102289
:1035D00013436365A36D0F3A1343A3650120DCE732
:1035E0000020DAE71700008070B5041E00D1E2E089
:1035F000436D002B30D0636DDB0633D422689168B5
:10360000042005000D4008422CD1616D6B4B194020
:103610000633FF3319436165916801330B40012B79
:1036200029D06368C02109068B4228D08021C905B2
:103630008B4224D0802109068B4220D013699B0045
:103640009B0813615E4B1A685E490A401A601A684B
:1036500061680A431A601BE0836550228354FEF7B9
:10366000C5FBC8E7636D1022134363655023002236
:10367000E254012070BD1368DB0713D4D1E713694E
:103680009B009B0813612268136961680B431361F7
:103690002268D36818218B43D3602268D368A1685D
:1036A0000B43D360464A136847490B4013601368C5
:1036B000616B49060B43136023689A68D20004D4F7
:1036C0009968802252050A439A602368DA683F4964
:1036D0000A40DA602068C268E368216902292DD0B7
:1036E0002B432021615C49030B432C21615C490081
:1036F0000B43216B0B43A16989030B43E169C903A8
:103700000B431343C360636AC222FF32934205D066
:103710002168CA68A06A03431343CB602123E35C9A
:10372000012B0DD0E36B012B1ED023681A69D20741
:103730002DD51A6901218A431A6128E00425CFE7B3
:103740001F33E35C002B06D12268D16880235B0223
:103750000B43D360E6E7636D202213436365A36DDB
:103760001F3A1343A365DDE72268136918490B402C
:10377000136121680A69236C606C0343A06C0343E6
:1037800013430B612268136901210B431361226803
:10379000536907218B43536122685369A16B0B4323
:1037A00053610023A365636D03229343023A1343DD
:1037B000636500205EE701205CE7C046FDFEFFFF79
:1037C00008270140FFFFC3FFFFFFFFFD1902FEFFB7
:1037D00003FCFFFF10B5040003689B685B0723D45C
:1037E0005023C35C012B21D050230122C254C36952
:1037F000012B14D10020636D0D4A1A4080235B0019
:10380000134363650023A3655022A3542368343A0D
:103810001A602268936804210B43936010BDFFF780
:10382000A7FE0028FAD1E6E70220F7E70220F5E735
:10383000FEF0FFFF10B504005023C35C012B17D02E
:1038400050230122C254FFF72BFE002803D050233F
:103850000022E25410BD2000FFF74CFE0028F6D1F4
:10386000636D044A13400432FF3213436365EEE78D
:103870000220EFE7FEFEFFFFF8B504000D004669E9
:10388000082E04D00368DB68DB0719D40C26FFF789
:10389000D7FD070023681A6816421AD16B1CF9D0AD
:1038A000002D04D0FFF7CCFDC01BA842F2D9636DF8
:1038B00004221343636550230022E25403202EE0C8
:1038C000436D20221343436550230022C25401203C
:1038D00025E0616D802292000A436265D968C022AA
:1038E0001201114214D12022A25C002A10D11A68C0
:1038F00012070DD59A68520712D45A680C218A43D0
:103900005A60636D0C4A13400432FF3213436365FF
:10391000A369002B0DD123680C221A600020F8BD8A
:10392000636D202213436365A36D1F3A1343A365A0
:10393000EEE70020F3E7C046FEFEFFFF0368186CC9
:103940007047704710B5040003681A68520702D523
:103950005A68520705D41A6812072DD55A681207FB
:103960002AD5626DD20604D4616D802292000A438A
:103970006265D968C0221201114214D12022A25CD2
:10398000002A10D11A6812070DD59A68520734D44C
:103990005A680C218A435A60636D224A13400432EC
:1039A000FF32134363652000FEF7D0FFA369012BAC
:1039B00002D023680C221A6023681A68120602D506
:1039C0005B681B0622D423681A68D20614D55A688D
:1039D000D20611D5226B002A02D0DA68D20708D5A8
:1039E000A26D02210A43A26510221A602000FFF78F
:1039F000A8FF236810221A6010BD636D20221343B4
:103A00006365A36D1F3A1343A365CCE7626D802302
:103A10005B02134363652000FEF732FF23688022B8
:103A20001A60D0E7FEFEFFFF70B504000D005023C2
:103A3000C35C012B5CD050230122C25403689A68F6
:103A4000520723D42B4A4968914232D0996A2A6896
:103A50005203520B0A439A622B685B031FD42B68F4
:103A60009B0305D5244A11688023DB030B431360B5
:103A70002B68DB0305D5204A116880235B040B43C8
:103A8000136050230022E254002070BD436D2022B9
:103A90001343436550230022C2540120F5E7164A20
:103AA000116880231B040B4313600A20FFF7E0FC1E
:103AB000D5E7996A2A685203520B914399622B68A1
:103AC0005B0304D50C4A13680C490B4013602B6848
:103AD0009B0304D5084A136809490B4013602B68FF
:103AE000DB03CED5044A136806490B401360C8E7D0
:103AF0000220CAE70110000008270140FFFF7FFFF6
:103B0000FFFFBFFFFFFFFFFE30B503005022825CC6
:103B1000012A46D05022012098541A689068400724
:103B200039D4087A012831D050688024A0435060ED
:103B30001868C2681C4C2240C2601C68E268F82009
:103B4000C0054D6828400D6828430243E2601D68A7
:103B5000EA68D208032002405200CC6894400A6907
:103B6000E968C90808404000824011002A6A0F48ED
:103B700002402A621868240404621868026A0A4330
:103B80000262002050220021995430BD50688024E8
:103B900020435060CCE75A6D20210A435A6501202A
:103BA000F0E70220F1E7C046FFFF3F8300F000F09E
:103BB00070B5002811DB8308134EC0339B009D595C
:103BC00003242040C000FF2214008440A543890143
:103BD0000A4082402A439A5170BD0F230340083B9C
:103BE0009B0806339B00094A944663445C680322A1
:103BF0001040C000FC3215008540AC4389010A40EA
:103C0000824022435A60E7E700E100E000ED00E077
:103C1000002805DB1F2318401E3B8340014A136028
:103C20007047C04600E100E0013880235B04984201
:103C30000FD2094A50600948036A1B021B0AC021BF
:103C400009060B43036200239360073313600020CF
:103C500070470120FCE7C04610E000E000ED00E006
:103C600070B5041E3DD005681F4BE8181421FCF701
:103C70004BFA800060641D4B236425230222E2542A
:103C80002B681B4A1A40A368E1680B4321690B4368
:103C900061690B43A1690B43E1690B43216A0B4343
:103CA00013432B608023DB01A2689A4210D0114B92
:103CB00019681C22656C15400F20A84081431960CB
:103CC0001968606C02406068904002000A431A6004
:103CD0000023E36325220121A154013AA3540020CB
:103CE00070BD0120FCE7C046F8FFFDBF00000240A8
:103CF0000F80FFFFA800024070B5036C19680468CC
:103D000025681C23426C134004229A40114214D0AF
:103D10006A0712D523689B0603D4236804229343C1
:103D200023601C22436C1A40016C042393404B60B7
:103D3000036B002B00D0984770BD02229A401142BD
:103D40001AD0AA0718D523689B0606D423680A222E
:103D5000934323602523093AC2541C22436C1A4022
:103D6000016C022393404B6024230022C254C36A97
:103D7000002BE1D09847DFE708229A401142DBD0C0
:103D80002B07D9D523680E22934323600E32436C50
:103D90001A40016C01231C0094404C60C36325222F
:103DA000835423330022C254436B002BC4D0984762
:103DB000C2E70000F0B5CE46474680B5002333E0A9
:103DC000052600E00026A64034003C430232920063
:103DD000564E9451564A1468EA432600AE434F6843
:103DE000FF0301D52C432600514C26606468260051
:103DF00016404F68BF0301D52C4326004C4C66602B
:103E0000A468260016404F68FF0201D52C43260007
:103E1000474CA660E46822404E68B60201D52A00ED
:103E20002243434CE26001330C682200DA4078D030
:103E300001229A40250015401442F4D04C68661EB9
:103E4000012E03D9112C01D0122C12D184685F00ED
:103E50000326BE40B4432600CC68BC403443846093
:103E6000446894434A681609012232409A4022432A
:103E70004260C4685F000326BE40F2439446B443E8
:103E800026008C68BC403443C4604A68022A01D0D2
:103E9000122A10D1DE080836B200914614580722C3
:103EA0001A4092000F269640B4430E6996403200A5
:103EB00022434C46225004686246144003224E6856
:103EC0003240BA40224302604A68D200ABD5194C56
:103ED000626B0126324362639A08941CA400134E5D
:103EE000A75903261E40B4000F26A640B743A026BC
:103EF000F605B04200D165E70F4EB0420BD00F4E31
:103F0000B0420AD00E4EB04209D00E4EB04200D19F
:103F100056E7062657E7012655E7022653E703260C
:103F200051E7C0BCB946B046F0BDC04600000140F4
:103F3000000401400010024000040050000800503E
:103F4000000C0050001C0050002A01D08161704715
:103F50008162FCE77047000010B5054B5B691842B1
:103F600000D110BD024B5861FFF7F4FFF9E7C046DE
:103F70000004014003689A69920701D500229A6201
:103F800003689A69D20703D49A6901210A439A61A6
:103F90007047000070B504686068049D6D0D802650
:103FA000F6002E40064D3543A8438905890D1204BD
:103FB00011431943049B19430143616070BDC0461E
:103FC000FF63FF03F8B505000F00160003689B6947
:103FD000DB0601D40020F8BD2B689C69A20615D42D
:103FE0007B1CF9D0FFF72CFA801BB84201D8002FB8
:103FF000F2D16B6C202213436B644123EA540023FB
:104000002232AB54023AAB540120E4E71022DA61C9
:104010002B682024DC612800FFF7ACFF2A68536876
:1040200007490B4053606B6C042213436B644123BC
:10403000EC5400233E32AB54023AAB540120CAE7A1
:1040400000E800FE70B504000D00160023689B69AF
:104050009B071CD4320029002000FFF7B3FF002883
:1040600017D16B1CF2D0FFF7EBF9801BA84201D8E7
:10407000002DEBD1636C2022134363644123E2548F
:1040800000232232A354023AA354012000E000206E
:1040900070BD0120FCE7F0B5C64600B507000D0075
:1040A00090461E003B689C692C40641B63425C4147
:1040B000444516D1731CF5D0FFF7C2F9069BC01A10
:1040C000B04201D8002EEDD17B6C202213437B64DB
:1040D0004123FA5400232232BB54023ABB5401203C
:1040E00000E0002080BCB846F0BD000070B582B092
:1040F000040015001E008023F2B2194800905B04F2
:104100002000FFF747FF079A06992000FFF79AFF64
:1041100000281ED1012E0ED12368EDB29D62079BAF
:104120000093069B002280212000FFF7B4FF0028A7
:1041300013D102B070BD23682A0A9A62079A0699C1
:104140002000FFF77FFF002805D12368EDB29D62B4
:10415000E5E70120EDE70120EBE70120E9E7C046B4
:104160000020008070B582B0040015001E00DAB295
:10417000184B00930023FFF70DFF079A06992000C4
:10418000FFF760FF00281ED1012E0ED12368EDB28B
:104190009D62079B0093069B002240212000FFF7B1
:1041A0007AFF002813D102B070BD23682A0A9A62F0
:1041B000079A06992000FFF745FF002805D12368DC
:1041C000EDB29D62E5E70120EDE70120EBE701207C
:1041D000E9E7C0460020008070B505000C0016001D
:1041E0002B689B699B061AD4320021002800FFF738
:1041F000E9FE002815D1FFF723F9801BA04201D862
:10420000002CEDD16B6C202213436B644123EA54E4
:1042100000232232AB54023AAB54012070BD00207F
:10422000FCE70120FAE7000010B5041E59D0412335
:10423000C35C002B43D041232422E254226813683C
:1042400001218B4313602268274B61680B40136187
:104250002268936825490B409360E368012B34D0B2
:10426000226884231B02A1680B439360E368022B3E
:1042700032D0226851681E4B0B4353602268D368CA
:104280001A490B40D360236962691343A269120281
:1042900021681343CB602268E369216A0B431360F2
:1042A0002268136801210B431360002363644122D9
:1042B0001F31A15423630132A354002010BD4033A9
:1042C0000022C254FEF798FAB5E7226880231B0249
:1042D000A1680B439360C9E72368802212015A60EA
:1042E000C7E70120EAE7C046FFFFFFF0FF7FFFFFBF
:1042F00000800002F0B587B004000391049205939A
:104300000CAB20CB1F884123C35C202B00D0B3E033
:10431000002D18D0002F16D04023C35C012B00D1F4
:10432000ADE040230122C254FFF78AF80600802145
:1043300000901923012209022000FFF7ACFE00289B
:1043400006D0012099E080239B006364012094E063
:1043500041232122E25401331F32E25400236364DB
:1043600065626785636301960E9B0093059B049AC3
:1043700003992000FFF7BAFE00280FD1638D9BB28E
:10438000FF2B10D9FF2323857F3B002200925B0483
:10439000FF3203992000FFF7FDFD21E040230022BA
:1043A000E254012069E0628D92B222858023D2B26C
:1043B000002100919B0403992000FFF7EBFD0FE023
:1043C000628D92B222858023D2B2002100919B049B
:1043D00003992000FFF7DEFD638D9BB2002B34D0E4
:1043E00032000E992000FFF72DFE002849D12368E6
:1043F000626A12789A62636A01336362638D013B79
:104400009BB26385238D013B9BB22385628D92B263
:10441000002AE1D0002BDFD100960E9B00228021E4
:104420002000FFF738FE00282DD1638D9BB2FF2BB3
:10443000C6D9FF2323857F3B002200925B04FF3215
:1044400003992000FFF7A6FDC6E732000E99200071
:10445000FFF7C2FE002818D123682022DA61216804
:104460004B680B4D2B404B604123E254002322321A
:10447000A354023AA35400E0022007B0F0BD02208A
:10448000FBE70120F9E70120F7E70120F5E7C04647
:1044900000E800FEF0B587B0040003910492059394
:1044A0000CAB20CB1F884123C35C202B00D0B5E090
:1044B000002D18D0002F16D04023C35C012B00D153
:1044C000AFE040230122C254FEF7BAFF060080216C
:1044D00000901923012209022000FFF7DCFD0028CB
:1044E00006D001209BE080239B006364012096E0BE
:1044F00041232222E25401331E32E254002363643A
:1045000065626785636301960E9B0093059B049A21
:1045100003992000FFF726FE00280FD1638D9BB280
:10452000FF2B10D9FF2323857F3B424A00925B0477
:10453000FF2203992000FFF72DFD21E040230022F8
:10454000E25401206BE0628D92B222858023D2B2C8
:10455000384900919B0403992000FFF71BFD0FE0F1
:10456000628D92B222858023D2B2002100919B04F9
:1045700003992000FFF70EFD638D9BB2002B36D010
:1045800000960E9B002204212000FFF784FD0028E6
:1045900049D123685B6A626A1370636A013363629C
:1045A000238D013B9BB22385628D013A92B26285D5
:1045B000628D92B2002ADFD0002BDDD100960E9BD7
:1045C000002280212000FFF766FD00282DD1638D99
:1045D0009BB2FF2BC4D9FF2323857F3B002200928F
:1045E0005B04FF3203992000FFF7D4FCC4E73200DC
:1045F0000E992000FFF7F0FD002818D12368202233
:10460000DA6121684B680C4D2B404B604123E2542A
:1046100000232232A354023AA35400E0022007B040
:10462000F0BD0220FBE70120F9E70120F7E70120B8
:10463000F5E7C0460024008000E800FEF0B5412305
:10464000C35C202B20D12033C35C012B1ED040241F
:1046500001220255412524234355066833689343BC
:104660003360066833680A4F3B403360066833683E
:104670001943316001680B6813430B6020234355D5
:10468000002303550020F0BD0220FCE70220FAE7DA
:10469000FFEFFFFFF0B54123C35C202B1ED1203379
:1046A000C35C012B1CD04024012202554125242348
:1046B0004355066833689343336006683368094F8F
:1046C0003B4009021943316001680B6813430B60DA
:1046D00020234355002303550020F0BD0220FCE7B2
:1046E0000220FAE7FFF0FFFF10B5264BDA680C2333
:1046F0001340082B42D00C2B11D0042B09D0214B96
:104700005A68520B0723134001338020000298405F
:1047100010BD1C4B1B68DB0632D51B48F8E7910C1B
:104720000F230B401949C85C920D03231A40541CF7
:10473000144BDB68DB0309D5154A00230021FBF786
:104740008FFD22000023FBF76BFDE1E70D4B1B689B
:10475000DB0609D50C4A00230021FBF781FD22006E
:104760000023FBF75DFDD3E70A4A00230021FBF796
:1047700077FD22000023FBF753FDC9E70448C7E794
:104780000448C5E70010024000093D00586E0008CB
:1047900000127A000024F400F0B583B0041E00D1AA
:1047A00097E2C14BDA680C251540DE6880235B0276
:1047B0001E400368DB0736D5082D2CD00C2D28D0E1
:1047C00063688022520293424DD0A022D2029342CB
:1047D00050D0B54B1A68B5490A401A601A68802152
:1047E00049020A400192019A1A68B1490A401A60C6
:1047F0006368002B4AD0FEF723FE0700AA4B1B6814
:104800009B0310D4FEF71CFEC01B6428F6D90320BE
:1048100060E2002ED4D0A44B1B689B0303D56368D1
:10482000002B00D158E223689B0765D5E368042D6F
:104830003CD00C2D38D0002B00D1B0E09A490A684A
:104840000920824313430B60FEF7FAFD0600964BE6
:104850001B685B0700D599E0FEF7F2FD801B02287C
:10486000F5D9032036E2904A116880235B020B439E
:104870001360BDE78C4B19688022D2020A431A608C
:104880001968802252020A431A60B1E7FEF7D8FD88
:104890000700854B1B689B03C5D5FEF7D1FDC01BE8
:1048A0006428F6D9032015E2002EC4D17E4A12688E
:1048B000520702D5002B00D110E27B4E72687D4971
:1048C0000A40216909020A437260326809218A4359
:1048D00013433360FFF708FFF26812090F231340F8
:1048E000754AD35CD840754B1860754B1868FEF755
:1048F0005FFD002800D0EDE12368DB062DD5002DFB
:1049000060D1694B1B689B0503D5E369002B00D17F
:10491000E6E1654A53686B490B40616A0B4353609B
:1049200053681B021B0A216A09060B435360636A22
:10493000590B013180231B028B40D16809090F22DA
:104940000A405D498A5CD3405C4A13605C4B18683E
:10495000FEF72EFD002800D0BCE123681B077DD5A3
:104960006369002B67D0504A136D01210B43136517
:10497000FEF766FD06004C4B1B6D9B076ED4FEF7E1
:104980005FFD801B0228F6D90320A3E146494B684E
:10499000484A13402269120213434B60ACE7424A73
:1049A000136801218B431360FEF74AFD06003E4B5E
:1049B0001B685B07A0D5FEF743FD801B0228F6D9D4
:1049C000032087E1E369002B22D0374A1168802356
:1049D0005B000B431360FEF733FD0600324B1B6890
:1049E0009B0506D4FEF72CFD801B0228F6D9032078
:1049F00070E12D4A536833490B40616A0B435360A1
:104A000053681B021B0A216A09060B435360A4E783
:104A1000254A13682C490B401360FEF711FD060070
:104A2000214B1B689B0598D5FEF70AFD801B0228C9
:104A3000F6D903204EE11C4A136D01218B43136507
:104A4000FEF7FEFC0600184B1B6D9B0706D5FEF714
:104A5000F7FC801B0228F6D903203BE123685B07A3
:104A600000D48EE0104B9B6BDB001BD40E4A916B85
:104A700080235B050B4393630126144B1B68DB0506
:104A800028D5A36880225200934237D0002B4DD105
:104A9000054B1A6D0C490A401A651A6D0C490A40FB
:104AA0001A6531E00026E8E700100240FFFFFEFF34
:104AB000FFFFFBFFFFE0FFFF406E00080800002043
:104AC00010000020FF1FFFFFFFFEFFFF00700040EF
:104AD000FFFBFFFF884A116880235B000B431360D4
:104AE000FEF7AEFC0700844B1B68DB05C9D4FEF75C
:104AF000A7FCC01B6428F6D90320EBE07F4A116DA8
:104B000080235B000B431365A368002B28D0FEF7BE
:104B100097FC0700794B1B6D9B0530D4FEF790FC8A
:104B2000C01B774B9842F5D90320D3E0A022D200D6
:104B3000934209D0714B1A6D72490A401A651A6D79
:104B400071490A401A65DFE76C4B196D013AFF3A6B
:104B50000A431A65196D802252000A431A65D3E789
:104B6000FEF76EFC0700654B1B6D9B0507D5FEF736
:104B700067FCC01B624B9842F5D90320AAE0012EC6
:104B800021D023689B063CD5A369002B21D05B4B29
:104B900099680120014399605A6B02435A635B4A4A
:104BA000116A80239B010B431362FEF749FC060048
:104BB000524B9B689B0724D4FEF742FC801B0228C3
:104BC000F6D9032086E04D4A936B51490B4093631D
:104BD000D7E74A4A936801218B4393604B4A136A93
:104BE0004C490B401362FEF72BFC0600434B9B68BD
:104BF0009B0706D5FEF724FC801B0228F6D903206C
:104C000068E0A36A002B00D16CE00C2D49D0022B88
:104C100012D03A4A136840490B401360FEF710FC6B
:104C20000400364B1B689B0139D5FEF709FC001BBD
:104C30000228F6D903204DE0304A136836490B406C
:104C40001360FEF7FDFB05002C4B1B689B0106D58E
:104C5000FEF7F6FB401B0228F6D903203AE027496D
:104C6000CB682E4A1340E26A206B0243606B02431A
:104C70001343CB600A6880235B0413430B60FEF789
:104C8000DFFB04001D4B1B689B0106D4FEF7D8FB1D
:104C9000001B0228F6D903201CE000201AE00020A7
:104CA00018E0012B20D0154BDA6880235B021340FB
:104CB000E16A8B421AD1F0239B031340216B8B4294
:104CC00016D1C0231B041A40636B9A4212D10020F4
:104CD00000E0012003B0F0BD0120FBE70120F9E76F
:104CE0000120F7E70020F5E70120F3E70120F1E7D5
:104CF0000120EFE70120EDE70070004000100240C6
:104D000088130000FFFEFFFFFFFBFFFF00000140D4
:104D1000FFFFFFEFFFDFFFFFFFFFFFFEFFFF02FFD1
:104D200070B505000C00002800D1D1E06A4B1A686C
:104D3000012313408B4219D32B689B0706D5674A82
:104D4000D368F0218B43A9680B43D3602B68DB0742
:104D50007BD56B68022B20D0032B40D0012B44D095
:104D60005E4A126892051DD4012099E05A4A1368E0
:104D700001218B4323431360FEF762FB0600564B71
:104D80001A6801231340A342D6D0FEF759FB801BBB
:104D9000534A9042F3D9032082E0504A12689203AA
:104DA00000D497E04D49CA68032082431343CB6087
:104DB000FEF746FB06006B68022B1CD0032B28D0A5
:104DC000012B34D0454BDB680C221A423DD0FEF754
:104DD00037FB801B424B9842F4D9032060E03F4AE6
:104DE00012689201DED401205AE03C4A1268520750
:104DF000D8D4012054E0394BDA680C231340082B37
:104E000023D0FEF71DFB801B354A9042F3D90320C7
:104E100046E0324BDA680C2313400C2B15D0FEF71A
:104E20000FFB801B2E4B9842F3D9032038E02B4B0D
:104E3000DA680C231340042B07D0FEF701FB801B1C
:104E4000274B9842F3D903202AE0234B1A68012309
:104E50001340A34225D82B685B0706D51F4AD368A9
:104E600020490B40E9680B43D3602B681B0707D52B
:104E70001A49CB681C4A13402A69D2001343CB60FD
:104E8000FFF732FC154BDA6812090F231340174A5B
:104E9000D35CD840164B1860164B1868FEF788FA9A
:104EA00070BD0D4A136801218B4323431360FEF745
:104EB000C7FA0600084B1A6801231340A342CAD060
:104EC000FEF7BEFA801B064B9842F3D90320E7E7B2
:104ED0000120E5E70120E3E7002002400010024046
:104EE00088130000FFF8FFFFFFC7FFFF406E0008B8
:104EF0000800002010000020014B18687047C046D1
:104F00000800002010B5FFF7F7FF044BDA68120A1B
:104F100007231340024AD35CD84010BD0010024062
:104F2000506E000810B5FFF7E7FF044BDA68D20AAD
:104F300007231340024AD35CD84010BD0010024042
:104F4000506E000870B5040082231B0102681A42EB
:104F500059D06F4B9B6BDB0000D592E06C4A916B94
:104F600080235B050B43936301256A4B1B68DB05BC
:104F700000D488E0664B1A68C0239B031A4061681E
:104F80000B40934200D193E0C0239B020A001A40D9
:104F90009A4200D194E05E4B1A6DC0239B02100030
:104FA00018401A421ED01940814202D023689B0645
:104FB00008D4C0239B02A2681340834212D0236806
:104FC0001B050FD5524B186D534A02401E6D8021B0
:104FD000090331431965196D504E314019651A6541
:104FE000C30574D46368C022920219001140914233
:104FF0007CD047490B6DC022920260680240134387
:105000000B65012D7CD02368DB0706D5404AD36CA5
:1050100003218B43E1680B43D36423689B0706D5C8
:105020003B4AD36C0C218B4321690B43D364236827
:105030005B0706D5364AD36C39490B4061690B438F
:10504000D36423681B0706D5314AD36C35490B401E
:10505000A1690B43D36423685B0606D52C4AD36C45
:1050600031490B40216A0B43D36423681B064DD59D
:10507000274AD36C2D490B40E1690B43D3640020D0
:1050800045E0002571E7234A116880235B000B434C
:105090001360FEF7D5F906001E4B1B68DB0500D533
:1050A00068E7FEF7CDF9801B6428F5D903202EE0D0
:1050B000C0239B03A0680340934200D064E76AE7E3
:1050C000134B1B689B0300D465E701201FE0FEF72C
:1050D000B7F906000E4B1B6D9B0583D4FEF7B0F9A4
:1050E000801B134B9842F5D9032010E008490A6849
:1050F00010480240C0208003034013430B6078E750
:105100000A008B6B0C490B4093637CE7002070BD59
:105110000010024000700040FFFFFCFFFFFFF7FFA0
:10512000FFF3FFFFFFCFFFFFFFFFFFFBFFFFF3FFDB
:1051300088130000FFFFCFFFFFFFFFEFF0B5D6465B
:105140004F464646C0B582B006000D0090461F008F
:10515000FEF776F90A9B181A8146B944FEF770F9F2
:1051600082462E4B1B685B011B0D4A46534301933D
:1051700033689C682C40641B63425C41444545D0C5
:105180007B1CF5D0FEF75CF95346C01A48450BD29C
:105190004B46002B08D0019A002A00D04A46019BBA
:1051A000013B01939146E3E732685368E0218B436A
:1051B000536082235B0072689A420CD080239B016B
:1051C000B26A9A4216D051230122F254013B0022C6
:1051D000F25403201BE0B36880221202934203D0F2
:1051E0008022D2009342E9D13268136840218B4378
:1051F0001360E3E73268136809490B4013603268B3
:10520000116880239B010B431360DCE7002002B090
:10521000E0BCBA46B146A846F0BDC0460800002032
:10522000FFDFFFFF70B584B004000D001600174BC0
:1052300018681749FAF768FF020043011B1A980023
:105240008018C000039082235B0062689A420BD0F2
:10525000039B002B17D0039B013B039323689B68A0
:105260001B06F5D400200FE000962B0000228021C1
:105270002000FFF763FF002806D0636D2022134350
:105280006365032000E0002004B070BD080000202A
:1052900000366E0130B583B004000B008220400060
:1052A0006168814217D082204000616881422FD11D
:1052B0008021C900A06888421CD000920022802171
:1052C0002000FFF73BFF00282AD0636D2022134304
:1052D0006365032024E0A16880200002814203D09E
:1052E0008020C0008142DED1206801684025A943AA
:1052F0000160D8E70092002201212000FFF71EFF85
:1053000000280DD0636D202213436365032007E05E
:105310000092002201212000FFF710FF002801D198
:1053200003B030BD636D2022134363650320F7E7AC
:1053300070B5041E5ED0436A002B07D10533FF33DE
:1053400042689A4205D00023C36102E00023036152
:1053500043610023A3625133E35C002B43D051220D
:105360000221A154206803684025AB4303608223D7
:105370005B006068034084200002A5682840034366
:1053800080200001E56828400343206901400B4369
:10539000012160690840034380208000A5692840FE
:1053A00003433820E569284003438020256A2840CC
:1053B000034380208001A56A2840256803432B60B1
:1053C000608B042303401020656A2840256803434E
:1053D0006B602068C369084D2B40C361002363657F
:1053E000A154002070BD50330022E2542000FDF78C
:1053F0002FFCB4E70120F5E7FFF7FFFFF0B5CE463D
:1054000000B584B00400019191461D005023C35C97
:10541000012B00D1C7E050230122C254FEF710F83F
:1054200006005123E35CDFB2012B00D0A7E0019915
:10543000002900D1A4E04B46002B00D1A0E051236D
:105440000322E2540023636521634A46A286E28672
:10545000A363A387E3876364236480231B02A2689A
:105460009A421ED023681A68520603D41A68402153
:105470000A431A6080231B01E2689A421DD06368C8
:10548000002B02D04B46012B4ED1236B1B78226898
:105490001373236B01332363E38E013B9BB2E386DB
:1054A00042E02268136840218B4313602268116830
:1054B0008023DB010B431360D4E76368002B02D029
:1054C0004B46012B14D12368226B1288DA60236BC0
:1054D00002332363E38E013B9BB2E38608E0FDF7D2
:1054E000AFFF801BA84201D36B1C54D1002D54D0B8
:1054F000E38E9BB2002B2AD023689A689207EED5E0
:10550000226B1288DA60236B02332363E38E013B44
:105510009BB2E386ECE7FDF793FF801BA84201D323
:105520006B1C3CD1002D3CD0E18E89B200290ED0FD
:1055300023689A689207EED5226B12781A73236B50
:1055400001332363E18E013989B2E186ECE7320051
:1055500029002000FFF766FE002801D020236365A4
:10556000A368002B06D103932368DA6803929B6833
:105570000393039B636D002B02D1002700E00227F9
:1055800051230122E254013B0022E254380004B0CE
:1055900080BCB946F0BD0327F2E70327F0E70327F5
:1055A000EEE70327ECE70227F0E7F0B585B004004B
:1055B000009101921E000A9D5023C35C012B00D173
:1055C00008E150230122C254FDF73AFF070051239E
:1055D000E35CD9B26268012B0BD082235B009A4254
:1055E00000D0DEE0A368002B00D0E3E0042900D067
:1055F000E2E0009B002B00D1E0E0019B002B00D1FA
:10560000DEE0002E00D1DDE05123E35C042B02D06C
:1056100051230522E25400236365019AA263E687C1
:10562000A687009A2263E686A686236463642368BD
:105630001A68520603D41A6840210A431A6080236C
:105640001B01E2689A4211D06368002B01D0012E41
:105650000AD1236B1B7822681373236B01332363F6
:10566000E38E013B9BB2E386012666E06368002B74
:1056700001D0012E0AD12368226B1288DA60236BD5
:1056800002332363E38E013B9BB2E38601261AE0DB
:1056900023689A68D2070ED5E28F92B2002A0AD008
:1056A000DB68A26B1380A36B0233A363E38F013B20
:1056B0009BB2E3870126FDF7C3FEC01BA84202D3BD
:1056C0006B1C00D080E0E38E9BB2002B03D1E38FF4
:1056D0009BB2002B4FD023689A689207D8D5E28EF0
:1056E00092B2002AD4D0012ED2D1226B1288DA6075
:1056F000236B02332363E38E013B9BB2E3860026D8
:10570000C6E723689A68D2070ED5E28F92B2002AC4
:105710000AD0DB68A26B1370A36B0133A363E38F22
:10572000013B9BB2E3870126FDF78AFEC01BA8421E
:1057300001D36B1C4AD1002D4AD0E38E9BB2002BC3
:1057400003D1E38F9BB2002B15D023689A68920790
:10575000D7D5E28E92B2002AD3D0012ED1D1226BBE
:1057600012781A73236B01332363E38E013B9BB2E0
:10577000E3860026C5E73A0029002000FFF752FD26
:1057800000280AD1A368002B0CD103932368DA68A0
:1057900003929B680393039B04E02023636501202D
:1057A00000E0022051230122E254013B0022E25496
:1057B00005B0F0BD0220F5E70220F3E70120F1E794
:1057C0000120EFE70120EDE70320EBE70320E9E705
:1057D0000320E7E70220EBE7F0B5C64600B584B04A
:1057E0000400039190461D0082235B0042689A42A8
:1057F00037D05023E35C012B00D1A4E050230122D9
:10580000E254FDF71DFE07005123E35CDEB2012BDD
:1058100000D084E00399002900D181E04346002BA9
:1058200000D17DE051230422E25400236365A1638B
:105830004246A287E2872363A386E38623646364E8
:1058400080231B02A2689A4218D023681A68520665
:1058500003D41A6840210A431A60E368002B21D060
:105860003CE08368002BC4D151330422C25400951C
:1058700043460A00FFF799FE060057E022681368C6
:1058800040218B4313602268136830490B4013603A
:10589000DBE7FDF7D5FDC01BA84201D36B1C4AD145
:1058A000002D4AD0E18F89B200292AD023689A6856
:1058B000D207EED51B7BA26B1370A36B0133A363DE
:1058C000E38F013B9BB2E387ECE7FDF7B9FDC01B1B
:1058D000A84201D36B1C32D1002D32D0E18F89B2A6
:1058E00000290ED023689A68D207EED5DB68A26B38
:1058F0001380A36B0233A363E38F013B9BB2E38767
:10590000ECE73A0029002000FFF7C4FC002801D092
:1059100020236365636D002B02D1002600E0022680
:1059200051230122E254013B0022E254300004B032
:1059300080BCB846F0BD0326F2E70326F0E7032655
:10594000EEE70326ECE70226F0E7C046FFBFFFFFC5
:1059500003688022D205904205D0124A904202D0BC
:10596000114A904203D1702293434A681343802224
:10597000D205904205D00B4A904202D00A4A90428A
:1059800003D10A4A1340CA681343802293430A6929
:10599000134303608B68C3620B6883620123436116
:1059A0007047C0460008014000140140FFFCFFFFA3
:1059B00030B5036A046A0125AC4304628469EF359B
:1059C000AC43120122430A24A3430B4382610362C6
:1059D00030BD000030B5036A1024A343036284691C
:1059E000036A054D2C4012032243A024A34309015E
:1059F00019438261016230BDFF0FFFFF836870228F
:105A000093430B4307210B438360704730B5846891
:105A1000034D2C401B0213430B432343836030BDD3
:105A2000FF00FFFF70B5041E1ED03923C35C002B9E
:105A300014D0392502236355210001C9FFF788FFDF
:105A400001233E22A354043AA3540132A354013249
:105A5000A3540132A3546355002070BD3833002293
:105A6000C254FDF7B1FBE4E70120F6E73923C35C3C
:105A7000012B23D138330222C2540268D36801219A
:105A80000B43D36003688022D20593420BD00D4AAA
:105A9000934208D00C4A934205D01A6801210A4368
:105AA0001A6000200BE0996807220A40062A07D0F6
:105AB0001A6801210A431A60002000E001207047A3
:105AC0000020FCE7000801400014014010B504006C
:105AD0003823C35C012B66D038230122C254013322
